:020000040800F2
:1000000018050020450100083B100008250D0008D8
:1000100039100008B1010008A51000080000000018
:100020000000000000000000000000003F10000879
:10003000B3010008000000003D1000084110000856
:100040005F0100085F0100085F0100085F01000810
:100050005F0100085F0100085F0100085F01000800
:100060005F0100085F0100085F0100085F010008F0
:100070005F0100085F0100085F0100085F010008E0
:100080005F0100085F0100085F0100085F010008D0
:100090005F0100085F0100085F0100085F010008C0
:1000A0005F0100085F0100085F0100085F010008B0
:1000B0005F0100085F0100085F0100085F010008A0
:1000C0005F0100085F0100085F0100085F01000890
:1000D0005F0100085F0100085F0100085F01000880
:1000E0005F0100085F0100085F0100085F01000870
:1000F0005F0100085F0100085F0100085F01000860
:100100005F0100085F0100085F0100085F0100084F
:100110005F0100085F0100085F0100085F0100083F
:100120005F0100085F0100085F0100085F0100082F
:10013000DFF80CD000F02AF800480047A9110008A9
:10014000180500200648804706480047FEE7FEE7FE
:10015000FEE7FEE7FEE7FEE7FEE7FEE7FEE7FEE777
:10016000A310000831010008D2B201E000F8012B11
:10017000491EFBD270470022F6E710B513460A4627
:1001800004461946FFF7F0FF204610BD064C074D08
:1001900006E0E06840F0010394E807009847103457
:1001A000AC42F6D3FFF7C8FF2C6900084C69000881
:1001B000FEE7704701B50348009901600168002916
:1001C000FCD108BD1400002072B6FEE770B50446ED
:1001D00000F010F90546601C02D004480078044481
:1001E00000F008F9401BA042FAD370BD04000020C3
:1001F0002DE9F84FDFF8C891002409F1040A0AF14B
:10020000040B23460F270BF1040ED1E00125A54076
:1002100006EA0502AA4276D1DFF8A8C14E68A6EB2D
:100220000C0866452BD00DDC032E34D005DC36B32C
:10023000012E19D0022E2FD11BE0112E16D0122E16
:100240002AD119E0B8F5881F19D006DCB8F5803F2F
:1002500015D0B8F5801F1FD111E0B8F5001F0ED0E2
:10026000B8F5041F18D10AE0CB6815E0CB681B1D58
:1002700012E0CB6808330FE0CB680C330CE08B68DE
:100280002BB1012B4FF0080303D0456104E0042398
:1002900002E0056100E00023FF2A01D8064601E0E4
:1002A00000F104064FEA840501D9A5F12005D6F82E
:1002B000008007FA05FC28EA0C0803FA05F548EA6D
:1002C0000508C6F800804D68ED0070D53E4DAE695A
:1002D00046F00106AE61AD6924F0030605F00105A4
:1002E00000953A4D06EB050CDCF80850A607360FD2
:1002F00007FA06F825EA0805DFF8D480404503D15F
:100300004FF0000825E052E0DFF8C880404502D1F8
:100310004FF001081DE0DFF8C080404502D14FF0EA
:10032000020816E0DFF8B480404502D14FF0030820
:100330000FE0DFF8AC80404502D14FF0040808E040
:10034000DFF8A080404502D14FF0050801E04FF0F2
:10035000060808FA06F848EA0508CCF808804D684F
:10036000D9F80060ED034D4601D5164300E09643F1
:100370002E604D68DAF80060AD03554601D516438E
:1003800000E096432E604D68DBF80060ED025D46AC
:1003900001D5164300E096432E604D68DEF80060FC
:1003A000AD02754601D5164300E096432E60641CED
:1003B0000A681646E2407FF429AFBDE8F88F0000D6
:1003C0000004014000001110001002400000014034
:1003D00000080140000C01400010014000140140E1
:1003E00000180140001C01400AB101617047090476
:1003F000FBE700000148806870470000040000200F
:1004000070B5040025D094F83D00002520B984F88B
:100410003C50204600F04EF9242084F83D0020682E
:10042000016821F0010101602068016841F4004188
:1004300001602068016821F40041016000F088FA41
:100440004D4A6168914201D84C4900E04C498842CC
:1004500001D2012070BD4B492368B0FBF1F15E6809
:1004600026F03F060E435E606368934206D94FF460
:10047000967359434FF47A73B1FBF3F12368491C27
:100480001E6A26F03F06314319626168914210D816
:100490004900401EB0FBF1F2521CC2F30B02042AC9
:1004A00001D2042022E0B0FBF1F0401CC0F30B00AD
:1004B0001CE0A268F2B301EBC10303EB0116431E7B
:1004C000B3FBF6F35B1C43F480431B0549D092B3A6
:1004D00001EBC10202EB0111401EB0FBF1F0401C28
:1004E000C0F30B0040F4804040F400402168CA692A
:1004F0004CF6FF739A431043C861D4E907100143D7
:100500002068026822F0C00211430160D4E90301AF
:1005100001432068826848F2FF339A4311438160A7
:10052000D4E9050108432168CA6822F0FF0210439C
:10053000C86001E00EE016E02068016841F00101AA
:1005400001602564202084F83D00256384F83E5036
:10055000002070BD01EB4106431EB3FBF6F35B1CAC
:10056000B3E70120C2E701EB4101401EB0FBF1F00F
:10057000401CC0F30B00B7E7A086010080841E007A
:1005800000093D0040420F002DE9F84F1F469046FC
:100590008A460446DDF82890FFF72CFF054694F8BC
:1005A0003D0020287FD11923012240492046009593
:1005B00000F044FC002876D194F83C00012872D069
:1005C000012084F83C0020680168C90703D1016854
:1005D00041F0010101602068016821F400610160BF
:1005E000212084F83D00102084F83E000026266477
:1005F000C4F824806785608D20852D48E0622B46F5
:100600004A465146204600F0A5FB90B92068416952
:100610008069009036E02A464946204600F08DFC6D
:1006200050B1206C042804D12068016841F40071A5
:1006300001600120BDE8F88F606A216800780861D8
:10064000606A401C6062618D491E6185218D491E72
:1006500089B2218522685369DB435B070BD451B112
:1006600000781061606A401C6062608D401E608589
:10067000208D401E20852A464946204600F0B8FBC2
:100680000028CED1208D0028C5D154F83D0B01683B
:1006900041F400710160202004F81E09E6776677B6
:1006A0000020C7E7FFE70220C4E7000002001000B7
:1006B0000000FFFF10B586B000210091019102916A
:1006C000039100680F4988421AD10F4CA06940F08D
:1006D0000800A061A069694600F008000490C020ED
:1006E000009012200190032003900848FFF780FD3E
:1006F000E06940F40010E061E06900F4001004904B
:1007000006B010BD0054004000100240000C014033
:10071000024881680278114481607047040000201B
:10072000074810B5016841F010010160032000F096
:1007300067F80F2000F006F800F024F8002010BD44
:100740000020024070B50D4D04464FF47A712878B0
:10075000B1FBF0F00A490968B1FBF0F000F0CEFA05
:1007600048B9102C07D200222146501E00F028F86C
:1007700000206C6070BD012070BD000004000020EE
:10078000100000200C4808B5816941F00101816129
:10079000816901F001010091C16941F08051C1619D
:1007A000C06900F0805000900448416821F0E06189
:1007B00041F00071416008BD00100240000001409E
:1007C000F0B40E4B1B680C46C3F30223C3F10705BC
:1007D000042D00D90425191D072901D2002300E0AA
:1007E000DB1E012606FA05F1491E214099409E4074
:1007F000761E16403143F0BC00F055BC0CED00E015
:10080000064900F0070208684FF6FF03184040EA67
:100810000220034A10430860704700000CED00E01E
:100820000000FA052DE9F0470F46050061D0434E60
:10083000306800F00700B84209D2306820F00700A5
:1008400038433060306800F00700B84251D1286862
:100850003B4C810712D5400703D5606840F4E06047
:1008600060602878000703D5606840F460506060DD
:100870006068A96820F0F000084360602878C0072D
:1008800028D06868012810D02168022810D0890774
:1008900000292EDA616821F0030101436160FFF74E
:1008A000A9FD804641F288390DE021688903EFE710
:1008B0008901EDE7FFF79EFDA0EB0801494502D94C
:1008C0000320BDE8F0876068696800F00C00B0EBB9
:1008D000810FEFD1306800F00700B8420BD93068C3
:1008E00020F0070038433060306800F00700B8425D
:1008F00001D00120E5E72878400705D56068E96860
:1009000020F4E060084360602878000706D560683E
:10091000296920F4605040EAC100606000F028F8C6
:100920006168084AC1F30311515CC8400649086078
:1009300006480068FFF706FF0020C2E700200240DB
:10094000001002408C200008100000200800002049
:100950000448054900684968044AC1F30221515C12
:10096000C840704710000020001002409C20000882
:1009700012A185B00FC98DE80F0014A0144A0068B9
:1009800004905168134801F00C03042B10D0082B7D
:100990000ED1C1F38343C9031DF803000AD5516882
:1009A00004AAC1F34041515C0A4A5043B0FBF1F044
:1009B00005B0704708494843FAE700000203040500
:1009C000060708090A0B0C0D0E0F1010010200009B
:1009D0000010024000127A0000093D002DE9F84F96
:1009E000040070D02078C04DC00749D06868C0F3BB
:1009F0008100012807D06868C0F38100022809D16E
:100A00006868C00306D52868800339D56068002867
:100A1000E7D035E06068B0F5803F0BD010B1B0F59D
:100A2000A02F11D0286820F480302860286820F496
:100A3000802002E0286840F480302860606890B12F
:100A4000FFF7D8FC06460AE0286840F480202860BA
:100A5000F0E700BFFFF7CEFC801B642873D828683E
:100A60008003F7D50CE0FFF7C5FC064605E000BFA4
:100A7000FFF7C0FC801B6428F0D828688003F7D4F7
:100A800020789A4E80074FF001094FF0000839D5C1
:100A9000686810F00C0F07D06868C0F38100022866
:100AA00009D16868C00306D42868800714D5206976
:100AB000012808D110E02069B0B1C6F80090FFF716
:100AC00099FC074605E00AE1FFF794FCC01B0228E9
:100AD000C4D828688007F7D52868616920F0F80035
:100AE00040EAC10028600DE0C6F80080FFF782FCF4
:100AF000074604E0FFF77EFCC01B022823D82868C5
:100B00008007F7D4207800072CD57948A169D9B19E
:100B1000C0F80090FFF76EFC074604E0FFF76AFCA0
:100B2000C01B02280FD8686A8007F7D571484FF4B8
:100B3000FA510068B0FBF1F0009000BF0098411E30
:100B40000091FAD20EE080E0C0F80080FFF752FC7E
:100B5000074604E0FFF74EFCC01B022875D8686A00
:100B60008007F7D42078400760D5E8690027C000E7
:100B700008D4E86940F08050E861E869012700F096
:100B8000805000905C480168C90513D40168834611
:100B900041F480710160FFF72DFC824606E000BF42
:100BA000FFF728FCA0EB0A0064284ED8DBF8000011
:100BB000C005F5D5E06801280AD008B1052813D092
:100BC000286A20F001002862286A20F0040002E070
:100BD000286A40F001002862E06841F2883B98B141
:100BE000FFF708FC82460BE0286A40F00400286208
:100BF000EEE700BFFFF7FEFBA0EB0A0159455AD80C
:100C0000286A8007F6D50CE0FFF7F4FB824605E082
:100C1000FFF7F0FBA0EB0A0159454CD8286A800782
:100C2000F6D41FB1E86920F08050E861E06988B32C
:100C30006968C1F38101022944D00228C6F86080A6
:100C400004D0FFF7D7FB044638E034E0FFF7D2FBCF
:100C5000074604E0FFF7CEFBC01B02282BD828680C
:100C60008001F7D4206AB0F5803F05D16868A1689B
:100C700020F4003008436860D4E90801084369683B
:100C800021F4741108436860C6F86090FFF7B2FB66
:100C9000044606E025E000BFFFF7ACFB001B02287E
:100CA00009D828688001F7D51BE000BFFFF7A2FB39
:100CB000001B022802D90320BDE8F88F28688001B4
:100CC000F4D40EE00128F7D06868226A00F480317D
:100CD000914204D1616A00F47010884201D0012071
:100CE000EAE70020E8E7000000100240000042426E
:100CF00080044242100000200070004010B5401EE9
:100D0000B0F1807F01D3012010BD4FF0E02460617D
:100D10000F21601700F0C7F90020A06107202061B3
:100D2000002010BDFEE701684A69D24352050FD486
:100D30006FF480624A61002140F8301F2022427324
:100D40008173026942F0040202610173012070475D
:100D500000207047F8B50446C06A1E460D46174687
:100D6000082807D0012805D010F5803F02D0206B5D
:100D7000122804D12068016841F480710160134693
:100D800000224FF001112046009600F057F840B1C4
:100D900020680068C00502D54FF40070206403206D
:100DA000F8BD2069B0F5804F0ED00620216800EA1A
:100DB000D51040F0F000086133463A460B49204612
:100DC00000F070F878B902E005F0FE0000E0E8B24B
:100DD00021680861054933463A46891F204600F0DC
:100DE00061F80028DCD00120F8BD000008000100F7
:100DF00070B516460D4604460DE02046FFF793FFFA
:100E000008B1012070BD681C05D0FFF7F3FA801B04
:100E1000A84207D835B120684069C0434007ECD4E8
:100E2000002070BD002044F8300F20216173A073B2
:100E3000216941F0200121612073E2E72DE9F047AB
:100E40001E4690460D460446C1F30747DDF8209044
:100E500008E0701C06D0FFF7CDFAA0EB0900B04205
:100E60000FD876B12068012F18D0806925EA0000DC
:100E70000004000C14D000214145EAD00020BDE858
:100E8000F087002044F8300F20216173A07321699E
:100E900041F02001216120730120F0E74069E5E77E
:100EA0000121E9E72DE9F0479A4691460E460446AE
:100EB00000254FF02008C1F3074725E0206840696E
:100EC000C043400514D42068016841F400710160FA
:100ED00021686FF480604861256384F83D8084F860
:100EE0003E50206C40F00400206484F83C501FE029
:100EF000B9F1FF3F08D0FFF77DFAA0EB0A014945A1
:100F00000CD8B9F1000F09D02068012F13D08069E7
:100F100026EA00000004000C0BD0CFE744F8305F55
:100F200084F80D80A573206940F0200020612573AE
:100F30000120BDE8F0874069EAE770B516460D4626
:100F400004460DE02046FFF7EEFE08B1012070BD1B
:100F5000681C05D0FFF74EFA801BA84207D835B1B0
:100F600020684069C0430006ECD4002070BD00201A
:100F700044F8300F20216173A073216941F02001F2
:100F800021612073E2E7000030B585B000200090B9
:100F90000190029003901648816941F0040181613B
:100FA000816901F004010491816941F480718161DA
:100FB000816901F480710491816941F008018161C6
:100FC0008069012200F008000A4DD40204902146F5
:100FD0002846FFF709FA01210320CDE90210CDE9E7
:100FE000004169462846FFF703F905B030BD00000F
:100FF00000100240002001400D4810B50B4901606F
:101000000C49416000214FF480428160C0E9031225
:1010100041618161C1610162FFF7F2F9002803D0EB
:10102000BDE81040FFF7D0B810BD000000540040EC
:1010300040000020801A0600FEE7FEE77047704778
:10104000FFF766BB30B58FB028216846FFF793F8ED
:1010500014210AA8FFF78FF801210804CDE9001038
:101060000024029402250491CDE907504FF4E010CA
:1010700009906846FFF7B2FC08B172B6FEE70F2090
:10108000CDE90A054FF48060CDE90C4002210AA8A1
:101090000E94FFF7C7FB002801D072B6FEE70FB031
:1010A00030BD7047FEE70907090E002804DB00F198
:1010B000E02080F80014704700F00F0000F1E020FD
:1010C00080F8141D704702E008C8121F08C1002AEA
:1010D000FAD170477047002001E001C1121F002AB9
:1010E000FBD1704710B50446012100F09FF90021A3
:1010F000204600F098F92349204600F084F922A305
:1011000014220021204600F015F90121204600F0AC
:101110008AF91C49204600F076F91CA30822152103
:10112000204600F007F90021204600F07CF918491C
:10113000204600F068F917A31E223321204600F054
:10114000F9F815A332220A21204600F0FBF82F23DC
:1011500023220221204600F090F82F23242203218D
:10116000204600F08AF80C2320222D21204600F092
:10117000F1F820460C232122BDE810402E2100F07A
:10118000E9B8000053450008550000003800000091
:10119000A420000867000000E4BDA0E5A5BD2C77F1
:1011A0006F726C6400000000A6B0FFF7B9FAFFF799
:1011B00049FFFFF7E9FEFFF71FFF0C4B0C4A0D49F3
:1011C000684600F06FF9684600F0B9FC00216846F7
:1011D00000F0C5FC684600F0C3F86846FFF782FFE0
:1011E000684600F0E3F80028F7D1F3E7451F000850
:1011F000011C0008C867000801680A7C90F83810D4
:10120000406B5143C900FEF7B6BF2DE9F0410446DB
:1012100090F870001F4615460E4630B1012809D0DF
:1012200002280CD0032815D10FE0E16D2046884735
:10123000284408E0E16D20468847301A09E0E16D56
:1012400020468847281A85B204E0E16D2046884789
:10125000304486B22846A4F86460A4F86600394693
:101260000025204600F014FB010003D0204600F0CA
:101270003FFA85B22846BDE8F08138B500240094D5
:1012800000F002F838BD00003FB581B0044690F888
:101290008C00089900283AD0BDF81000002836D0FC
:1012A000012811D9022902D0032907D00CE0BDF88A
:1012B0000820101A401CADF8080005E0BDF80C200D
:1012C000101A401CADF80C0011F0010521D0B4F843
:1012D0004810BDF80800814219D8B4F84A1081427C
:1012E00015D9B4F84E30B4F84C2004A90DF10C0017
:1012F00000F070F900280AD00095206BBDF810307E
:10130000BDF80C208568BDF808102046A84705B038
:1013100030BDB4F84C10BDF80C008142F7D8B4F8D9
:101320004E108142F3D9B4F84A30B4F8482004A9E9
:1013300002A8DDE730B4024C446030BC00F077B95D
:10134000C51B000830B4024C446030BC00F06FB9DB
:10135000FD1F000838B501240094FFF795FF38BD44
:1013600010B5044690F8930010B12046FFF744FFF3
:101370002046BDE81040002100F037B870B50D469A
:101380001E460446B0F84E10B0F84C00049B00F026
:10139000DCFA002809D0B4F84A10B4F84800334603
:1013A0002A46BDE8704000F0D0BA70BD70B5044662
:1013B00000F059FB94F8390094F838100844C5B28D
:1013C0002068407CA84204D8204600F0C0FB0020E2
:1013D00070BD94F8930010B12046FFF70DFF294629
:1013E000204600F002F8012070BD10B5044680F8D8
:1013F0003910006B016820468847206B4168204601
:10140000BDE81040084710B50446806D884209D0F9
:1014100004F17400A16500F0F1FA2046BDE8104027
:1014200000F05CB810BD80F87010704780F86D1047
:10143000704700000149C16570470000A51600080B
:101440000021A0F85010A0F854104FF6FF71A0F83A
:101450005210A0F85610016B4968084770B5044651
:1014600000250498A565E362616384F8382084F858
:10147000395084F86D5084F8915084F88D500121D2
:1014800084F8921084F893102063016820468847FE
:101490002046FFF7D5FF2046FFF7CCFF84F87050B9
:1014A00070BD00007CB50C46009313460546084A03
:1014B000084900F05CFB01A800F09AFA0146064BCF
:1014C00000949DF804202846FFF7C8FF7CBD00006B
:1014D000151D00083D1E00086319000810B5816D38
:1014E00000291AD090F9813080F88E3090F982204E
:1014F00080F88F2090F88D1000290ED001290DD092
:1015000090F97E4090F980100C449C4201DD80F8F7
:101510008E408A4201DD80F88F1010BD90F9831053
:101520008B4201DA80F88E1090F98410F1E72BB12C
:10153000012B05D0022B06D0104402E0084400E045
:10154000801A80B27047401AFBE72BB1012B05D0FF
:10155000022B06D0401A02E0104400E0084480B29A
:101560007047801AFBE738B50446B0F85600009083
:10157000B4F85230B4F85420B4F850102046FFF7B5
:10158000FDFE18B3012084F88C00B4F84810B4F8BC
:101590005000814201D2A4F84800B4F84A10B4F8CF
:1015A0005200814201D9A4F84A00B4F84C10B4F8B2
:1015B0005400814201D2A4F84C00B4F84E10B4F8A3
:1015C0005600814201D9A4F84E0038BD002084F8AD
:1015D0008C0038BD30B504880D882544ADB2AC42CE
:1015E00005D99C4202D25D1EADB200E014469C4279
:1015F00001D2954201D8002030BD944200D2144659
:101600009D4200D91D460480281B0880012030BD62
:1016100038B5C58F049C0094521BC46A92B2A0478F
:1016200038BD38B5049C0094FFF7F2FF38BD2DE9B2
:10163000F0471C4691468846064600F0DBFC002534
:101640004FF6FF7772682178304690470346B842DC
:1016500025D0641CA3F57F40FE38F3D04A464146AE
:101660003046FFF7D2FD96F8701031B1012907D04E
:10167000022908D003290FD10AE008EB000104E099
:1016800009EB000106E0A8EB00011FFA81F803E076
:10169000A9EB00011FFA81F9284485B2D2E7284658
:1016A000BDE8F0870020704710B50C4600F006F842
:1016B0000122641EA240801A40B210BD30B50568F8
:1016C000047B2A78E2406318DBB2082B09D36D1C37
:1016D00005602D78C4F10804A5401543083BEAB223
:1016E000DBB201248C40641E14400373204630BDDD
:1016F0002DE9F843054600F1600400F00CF915F9F6
:101700006B6F2046E97BFFF7CFFF8146297C20469F
:10171000FFF7CAFF0746697C20466B3DFFF7C4FF11
:10172000804694F90A00002857DDF019404247B27C
:10173000237CA0883A464946FFF7F9FEA080237C27
:101740003A46E0884946FFF700FFE080A188277C01
:1017500002460B4637B1012F0AD0022F40D0032F8B
:101760000FD146E094F90A7030443B449BB207E045
:10177000891B491C94F90A705B1C89B29BB23844DE
:1017800080B200902846FFF7F9FD30B300202072A8
:1017900084F8090095F876102046FFF78FFF814600
:1017A00095F877102046FFF789FF07460022494643
:1017B000284600F027F801223946284600F022F892
:1017C00001212046FFF77AFF0028EFD194F90900A4
:1017D000B042DFDBA07B85F892004046BDE8F8838D
:1017E00094F90A705B1CC91B491C89B29BB2921BFD
:1017F00004E094F90A7033449BB2D21B521C92B29B
:10180000401CBDE72DE9F74F84B00D46049C94F8C9
:10181000687094F869806034A07AC01BC6B20196E3
:10182000B54200D201954FFA88F279B2A088B4F897
:1018300006B0237C92468946FFF779FE0290237C0E
:10184000524649465846FFF780FE0246069808B1C0
:10185000A17B02E0607B50B9E17B049880F8921094
:10186000207C0090DDE901310498FFF70DFDB542C1
:1018700007D3A81BC5B208F10100002700F0FF083C
:10188000CAE77819207284F8098007B0BDE8F08FA4
:1018900070B50D460146806D1730FF2D10D8612DB3
:1018A00002D3B1F8881003E0412D02D3B1F88610BD
:1018B0000844417819B30278AA42F9D1801C70BD5E
:1018C000B1F88A100C1826460021304600F019F8AD
:1018D00004440221304600F014F8361DA842F3D328
:1018E0004FF6FF72207802EA00216078084306D0A4
:1018F000A84201D1E01C70BDA0780444F2E70020AA
:1019000070BD08444FF6FF720178407802EA012169
:10191000084480B2704730B5054600F160040166A6
:101920000020207315F8781F2046FFF7C7FEA0722D
:1019300069782046FFF7C2FEE072A87EA07310B15E
:101940000020E07330BD0120FBE78A4205D28342CC
:1019500001D89A4203D9012070478342F9D8002068
:101960007047F0B502F007060124B440002590F856
:1019700092E0E7B2DDF814C02C46BEF1010F01D8A9
:101980003D4600D03C46076822F00702BCF1000F3C
:101990003F7C07FB02F7BAB2476B3A44114409D1C6
:1019A00008785B1E284360401B0401F8010B1B0CE8
:1019B000F6D1F0BD0A78761C2A436240A3F10103F8
:1019C0000A7016F007069BB206D06A06150E62066C
:1019D000140E002BEED1F0BD428F114490F89220EE
:1019E000012A02D84FF00105F3D04FF00104F0E7CF
:1019F00001210170004870479400002070B5054631
:101A000008782870487868708878A870C878E87076
:101A1000087928714879687188790C46A871E0794D
:101A2000E871207A2872607A6872A07AA872E07AE7
:101A3000E872207B2873607B6873A07BA873E07BCF
:101A4000E873207C287411212046FFF75AFF688232
:101A500013212046FFF755FFA88215212046FFF7E6
:101A600050FFE88270BD2DE9F843064690F83870C3
:101A700090F83950006800244FF6FF7890F81190E4
:101A8000316830462A460B7C716B04FB03FC1FFA5D
:101A90008CFC08EACC0C61440091002100F040F875
:101AA000641C6D1CE4B2EDB2BC4201D24D45E7D3DB
:101AB000BDE8F883F0B590F838204FF6FF7503685D
:101AC00005EAC2018187197C05EAC101418790F8C6
:101AD000394005EAC401C1875E7CA718B74201D925
:101AE000321B92B205EAC20220F8401F1144418025
:101AF000998A8180D98AC180F0BDFFF7DBBF0021C0
:101B0000A0F84810B0F84410A0F84A10B0F84010FF
:101B1000A0F84C10B0F84210A0F84E10FFF723BD0B
:101B20001CB58DF805108DF80620049C8DF8043046
:101B30000094012284686B460F21A0471CBD30B47D
:101B400084680023A44630BC1A460A21604730B49A
:101B500084680023A44630BC1A461021604730B484
:101B600084680023A4460A4630BC0B2160472DE957
:101B7000F04115460E460446069F00F009F86761DD
:101B8000A660C4E903532046BDE8F04100F012B856
:101B9000002140F8081B064A026042608260C26071
:101BA000C17681770161FF21017780F820107047AD
:101BB000411F000830B484680023A44630BC1A4694
:101BC00009216047080001D00A2801D14FF6FF70B3
:101BD000704730B404690023A44630BC1A4619216A
:101BE000604713B50122046901AB1721A0471CBD52
:101BF00030B404690023A44630BC1A46182160475B
:101C000038B5142922D0124C172905D0182910D024
:101C1000192911D0002038BD0E4907E0207813F8AB
:101C2000015B0D54401C521E2070D2B2002AF5D127
:101C30000CE00020207009E04FF47A71009190F8D8
:101C400024102378034A0448FEF79EFC012038BD87
:101C500000000020200000204000002030B4C468B4
:101C60000023A44630BC1A461921604730B4C4682A
:101C70000023A4460A4630BC1621604730B4C4682D
:101C80000023A4460A4630BC1521604730B4C4681E
:101C90001346A4460A4630BC17216047F8B50C46E7
:101CA0004FEA000514F8011B182924D00EDC152971
:101CB00019D0162917D0172923D120788DF80000C4
:101CC0006A4601212846FFF7E1FF0AE0192912D0F0
:101CD000FE2916D122788DF800202921284600F00F
:101CE0006DF9641CDEE722788DF80020EE68002391
:101CF0002846B047F5E70023EE681A462846B04765
:101D0000D0E7F8BD30B4C4680023A44630BC1A46FE
:101D1000182160472DE9F041DFF8B08014460646EF
:101D2000A1F11402002798F800001D46062A4AD2A5
:101D3000DFE802F02F03161B3E4310B13046FFF7D9
:101D400048FF3046FFF754FF00213046FFF749FFB8
:101D500021463046FFF745FF012088F8000029E0C2
:101D600021463046FFF73DFF24E050B13046FFF7F3
:101D700030FF06E01821304600F026F9183CE4B2A6
:101D80001835182C2A46F5D82146304600F01CF9A3
:101D90000EE096F82400FF2802D1782086F824006F
:101DA00037692B4622463046BC46BDE8F0416047C5
:101DB00088F800700120BDE8F0810028F8D0304696
:101DC000FFF707FFF4E70020F5E700001800002008
:101DD00070B50023456904461A462821A847002308
:101DE000E5681A4614212046A84701224B212046C7
:101DF00000F0E4F8206829210279204600F0DEF89E
:101E000000224B21204600F0D9F8206829210279D0
:101E1000204600F0D3F801224B21204600F0CEF8F6
:101E20002068292142792046BDE8704000F0C6B8FC
:101E30000160897C80F822107047000070B50C4664
:101E4000054600F019F888B9092C0BD00A2C01D0EE
:101E5000002070BD2846FFF7BBFF05492846FFF765
:101E60001DFF03E003492846FFF7E2FF012070BD94
:101E7000FA670008FC6800082DE9F0411E46144688
:101E800005460B2908D00D290ED00E291ED00F298A
:101E900027D00020BDE8F0811AB12849FFF7FEFEE7
:101EA0004AE02649491FF9E74AB124490C31FFF7B6
:101EB000F5FE286890F8130085F822003CE01F49E1
:101EC000491DFFF7EBFE2868807CF5E7FFF71AFF56
:101ED00081212846FFF7D2FE21462846FFF7C6FE9D
:101EE00027E0FFF70FFF707995F8221001EBC00093
:101EF000C7B240212846FFF7C1FE102040EA171163
:101F00002846FFF7BBFE07F00F012846FFF7AEFE9D
:101F1000B07940F0B0012846FFF7A8FE307932686A
:101F2000C006010E2846FFF7B1FE641E14F0FF0440
:101F3000F4D12846FFF792FE0120ABE7D9670008ED
:101F40000020704710B51C4B4D2928D00CDC2B29E4
:101F500018D004DC29291BD02A290ED114E02D2900
:101F60000ED04C2909D117E00022502920D0512948
:101F70001ED052291CD053291AD0012180F82710D5
:101F8000012010BD00BFFBE70A20FEF713F9F7E7B9
:101F90000120FEF71BF9F3E70122402104E0012AAA
:101FA00001D0002AECD180211846FEF71DFAE7E7A0
:101FB00080F82720E4E70000000C014030B44469B9
:101FC0000023A44630BC60472DE9F04115460E467B
:101FD0000446FFF70DFE40212046FFF702FE276969
:101FE0002B46324617212046B8472046BDE8F0412F
:101FF000FFF7EFBD002180F82610704730B54FF68F
:10200000FF72A9B30A293FD090F82630541E7BB145
:102010005B1E13F0FF0380F82630058C01F03F01B2
:1020200002EA851242EA010202842DD0204630BD28
:10203000FC2905D3052280F8262001F001011FE0CC
:10204000F82905D3042280F8262001F0030117E0C7
:10205000F02905D3032280F8262001F007010FE0C4
:10206000E02906D3022280F8262001F00F0107E0C4
:102070000AE0C02906D3012280F8262001F01F01C2
:102080000184D3E7084630BD104630BD0000000093
:102090000000000001020304060708090000000018
:1020A000010203049B00030204040304050C0D0059
:1020B000FE08FE0AFF016102CE04172005004C0B4A
:1020C000210791468B53002207347D8BC814230EC1
:1020D00096C49BA86558A25E86256A01240FA53C7C
:1020E000AB6CA92899A8254A658B002510963C9BC6
:1020F00028E9A225619A4449172D01260E8544AB93
:102100002C8992AC322551A404270631FE8A01287D
:102110000BB33DAB244AA26E5116290CB33D8B2C58
:10212000CAA22E5112012A0C7544AB4AE5A02C4DCF
:1021300011002B0B7744BCB8360C595C032C0732CA
:102140003E0B45012D0615648B412E0621C60A0162
:102150002F0CC43CBBA6AC9495B21A00300A85443F
:102160009B25F32D5900310985448BB14F830032F3
:102170000B85449B250B6B6D8300330C85448B21B1
:102180000D93350C0705340E86C43B2D89BA64C9FE
:1021900030A60900350D85448B2109C3210DC341AB
:1021A00001360D85449B250C8724B3250B00370B86
:1021B00085448B41AC85595802380D85449B25D305
:1021C0009225B3250B00390D85449B25B32543A8E3
:1021D000250B003A06614409493B09823E8B215692
:1021E00014003C089544CBAC6B073D08355C8B4133
:1021F0001D043E0995448BB45B47003F0D95449BFD
:1022000025D3C248CBA130024014A73CACAD9248C4
:102210005A22294A45A9488992651300410E8744EC
:10222000BC384DC2242B0D4AAA06420D86C48B41F0
:1022300009C561098DC302430C86C49B2109D58E53
:10224000C99000440D87448C410A93D463324800FE
:10225000450A85448B63388CC541460B85448B63A6
:102260003824612300470D86C49B2109D5DA28262E
:102270008300480B86C48BD0380CA26300490883C6
:10228000448A25EA654A08A334AAFEB4004B0D85AA
:10229000448B4C4A4A9A9644952C4C0985448BB001
:1022A0008F83004D1087440C6DC8968A5291222965
:1022B00052D5004E0D86C48B70532229D14663003F
:1022C0004F0C8744ACAD92BA26593601500C854468
:1022D0008B21C96C83121601510D973CACAD92BA9B
:1022E0002659B62700521086C48B21CA922CC99257
:1022F000216A4BC200530C85449B414CD7301C14BF
:1023000000540987448C4316F70D550A86C48BD0B8
:102310008FC99000560F87448C544DB228AB844926
:102320001A6700571189448D2CD332ADD229694ADE
:10233000DA8A5904580D86C48B504CA24C8B5A42F1
:1023400031590B87448C34C92A69DC0D5A0A8744F9
:102350008C43DAE761085B09B33E8B21EA4F035CEB
:102360000CA53C8B300DD3300DD3305D09B33D8BC4
:10237000A93F0D015E083574AB2CA9055F06153C1D
:102380008B41600732FD8A240A610C65449B254B12
:10239000064D4B8600620C85448B301C92CC6D50F0
:1023A00000630864C49A216B1C640B8544CBCAA0EB
:1023B000B9254300650B65449B251B86301D0266CD
:1023C0000983449A69883A01670C85349B41734BB1
:1023D00086305900680B85448B301C92CC5B0069B9
:1023E0000781448964186A08A2B4992CE9656B0DC9
:1023F00085448BB09494B424AA64016C0781448909
:1024000083006D0E67448C45892229922229920A05
:102410006E0965448B21C9BC056F0A65449B257311
:102420004B1600700C85348B21C9DC06250C01711C
:102430000B85349B41734B86B000720863448A213C
:10244000EA04730C65449B254BD4244B1600740A94
:1024500083448A281AA23601750965448BCC5B3205
:1024600004760C65448B4C4B4A49164600770E6740
:10247000448C289222A5A2748BB204780B65448BFD
:102480002CA9556A5A00790D85348B4C4B4A491654
:102490006661067A0A65448B41CCDA06017B0BA3A0
:1024A0003CAA24AA64515B007C07B1BE8A07017D67
:1024B0000BA33C8A2CAA25514B047E0726DC1BC9A2
:1024C00002800F95442BA9920D51364461142900C6
:1024D0000000000C593909C9706B0AA4FFFF2013D2
:1024E000081B658E07014E000A2B647E28190E0218
:1024F0004E0A17BB3CDE1CCBB11CCBB141CEB11C8C
:10250000CBB11C4B8783004E0B16AB3C8E0735C7F7
:10251000724C87921C89F228CFB11C4B014E0D19C9
:10252000BB3C8E0739C7722887943889C2288BB282
:1025300050CCB11C4B014E2A16BA3DCE1CCA91722A
:1025400016466D9998433994433994024E2D16B925
:102550003DCE1C098743966999960D07AD9823399E
:1025600012024E3A19B93D9E284E72241C8E5928EB
:102570006551924549942659A42A004E3B16BB3C0E
:10258000CE1C4C87839A6339160FE71CCBB1743885
:10259000084E4815BB3CDE1CCBA11CCAD2B0772824
:1025A0004B4BC321CA034E4B17BB3CCE1C8C873B05
:1025B00094433994433994233A12C5E1304E5F1B5A
:1025C000BB3CDE1CCBA3488B966CC892292B25B54F
:1025D000A81885519E0D83004E661ABB3CCE2C0E6A
:1025E000956150C22CCEA2E120A6611A46499AC537
:1025F00031004E8612B93D8EF7B29E2339922339AF
:102600001227790A4E8B17BB3CDE7438488D516D0A
:102610003867C97050B36838E7C80A4E8E17BB3C9C
:102620009EE19C6339960E0735C7722CC7722C4702
:1026300056004E9114BB3CAE61C8B90F073187728A
:10264000AC5A1B6E71024E9218BB3C8E0731C7729A
:102650006C50C3344CC370D8B11CCB8683004E9BE6
:102660001CBB3CBE288F5A945A124949294B12254B
:102670001BC221878721878783004EA417BB3CDEBE
:102680007438E87896D6922C09B33CC9A11C31AABB
:10269000034EBA16BB3CDE1CCBB11CCBB11CCBA18C
:1026A0002447EA595AD2054ECE16BB3CBE72166775
:1026B0007116677196268D495B4B1696034ED61D93
:1026C000BB3CBE729646492D4A2665489A925A945A
:1026D000D4A2448C92A831CA06014EE518BA3DFE38
:1026E000288E6A5116D5A272548B9230129362963C
:1026F00089014EEA1CBB3CBE28CF922C89922C0942
:1027000023294B4AC52C09AB59124659250D4EECCD
:102710001DBB3CAE7A962C519225513AA549942680
:10272000519A446912A549942651284EF61ABB3C89
:10273000BE72528D923419A6AD12A6C93044611AE8
:10274000A6611A66004EFD1CBB3CBE308D92308BDC
:10275000B2288B94548906AD9495B2521665954C67
:10276000014F181BBB3CBEA8186551160F172D4C06
:10277000323553A3248D92A81295C4014F1A17BB6A
:102780003CDE1C4AF22C2D2983A2330DD71C0AC330
:102790006150004F2018BB3CBE729646C31486CAD7
:1027A0003028591C0D539C55C26A094F461BBB3C2F
:1027B000BE1C4B062DCA4A59240D4A292B65A5413A
:1027C000CBB11C4B86214F5C1ABB3CBE2447EAD1DF
:1027D0003025D5294CB2212B67713648599C85008C
:1027E0004F601CBB3CBE2447EAD1302569226649B4
:1027F00094D4A2A49644252D2A46350D4FDD1CBB4A
:102800003CBE641093AC94950649CC926418A230F7
:10281000CDC628A9255163064FE11CBB3CBE28CF7D
:10282000D26418A21C9206A58E45839663D1A0455A
:102830005969500050A821BB3C1E314A2A83942676
:10284000D1320C4A1626D11025895489862851A2E6
:102850004AD438240050CF1FBB3CBE680893284C94
:102860008621524A89340C49564A945A254C94ADD3
:10287000524A4C00514518BA3DDE70388439926591
:10288000C320464918C5519A45B5681D51461ABA24
:102890003DBE288B5A4A4994446A944A5312455281
:1028A000358B92309207516517BB3C3E1DCCB11C55
:1028B000CBA12447EA599CA5B53CC9A100516C188D
:1028C000BB3CFE388BC36A186551166A3916C56160
:1028D000380C629A00517315BB3CAEB4160EE71C5F
:1028E0004B87439C43499EA5255D517616BB3CBE54
:1028F000E270CCE241CEE241CEB2E1A0554B7A0289
:10290000518516BA3DCE1C4A8783166AA1662A29CC
:1029100061A2233A220F518C1EBB3C9E2119A24A70
:10292000D412B544C97050A2246A895AA296A82527
:102930004AA2490151FA16BB3CDE382B65A5AC34DE
:102940009CD33014433114C3E10151FB16BB3CDE70
:102950001C8B87738EA5C3418DB35256CA4AC305DB
:10296000520618BB3CBE729616D32C4F926148C2D9
:102970002CCED2B01A891A0052071BBB3CAE1C8B5E
:1029800086298CA2291AC2A81855A29294455935B5
:10299000AC290052201BBB3C8E6553BA285D942E97
:1029A000C32151BA285D942E4A9BD2A658065230B4
:1029B0001DBB3C8E43568ED2A41625C3A0D4C22480
:1029C00019A4240B932CCE866C480752361DBB3CB1
:1029D000BE382926C9B02452980C83520B936458F0
:1029E0003A259DB2A4A2150752371DBB3C9E614BF0
:1029F000C22C1996A62C296549322C15A545E9A2A9
:102A0000F4946C6136524D1BBA3DAE308DB2E190FC
:102A1000834352AA9486A454290D49A91625CA02B3
:102A2000526A1ABB3CBEDA7050A2301A92A8258AAC
:102A300086246AD3E1E11A469B0452A118BB3CBE2E
:102A40001C1B462D8C921CCA11DB141D86384BC3EF
:102A5000CC0652A81BBB3CFE7088722C8786831262
:102A600015A3629444A561C9C2244B23055343179F
:102A7000BB3CEE6DD0B11C4B87839A6339966339AA
:102A800096632900535517BB3CBE7A920EA7AC340F
:102A90009CB2D2704E87839A632900535A1DBB3C67
:102AA0009E30AA0C831286CB3055A2D23055A26834
:102AB000382451D694A51200536117BB3CCE1C1B81
:102AC000E41C8B87839863498E447916E7580C532E
:102AD0007019BA3DBE781AC64CCC06251333319313
:102AE000926C881225CCA11053BB17BB3CDE1CCBCB
:102AF0008721CFB17438A839540EB3E1162700539B
:102B0000CC1AAB3C8E0731895AA22C298559126602
:102B10004996642D521AC5610053D119BB3CAEC60B
:102B2000288BB27838843936C8599A54B3344BA4B8
:102B3000481453D61FBB3C8E73940C4A9464C990BE
:102B4000644954898628896A25291AA4244DA254E7
:102B50000C53E30C99458E87DCF7E1A00753EA1884
:102B6000BA3DAE61C8D22CCDD22CCD86214BC32C20
:102B70004CA35C470253EF18AB3C8E071D09872816
:102B80008C8A517188C2A88EE5588E4C0053F0167D
:102B9000B93DCEBC564D863B920C43944669944653
:102BA000C3900053F719BB3CAE6108D3701872781C
:102BB00038883934EC588EE5518E680053F81ABACB
:102BC0003C9EE10E0D971C4A862909A3248C926134
:102BD000CAA11C8A1700540C19BA3C8E071D5186D5
:102BE0004547A421924A52491A22A9A423BA005463
:102BF0000E1ABB3CFE6D90736C38E5588E25C3965B
:102C00008451318A86250B130054271ABB3CCE61B0
:102C100059A2A453D229E994B40CCB1227752C0DD8
:102C2000D37418548C1ABB3C4E79C7B2E190445906
:102C3000299A4A4A29E9246551960D590E54CD1A0C
:102C4000BB3CFE1C0A976150AA4A6551BA285D86B2
:102C50002459C2344CC350552E19BB3CAE2C1E4EC9
:102C6000593A5C6AF13068E5E1146771360C0A0084
:102C700055461DBB3CDE743868C5E154892A59129B
:102C80000DA7244BA26450A2244BA25801566820E1
:102C9000BB3C9E2119A24AD412454332C451341C74
:102CA000B4DAA00C4A94442D513424430256DE1861
:102CB000BA3D8E071DD1116988A492549286482A84
:102CC000E9C8F08E0456E019BB3C8E8FA1182AC3C8
:102CD0009088A1186A4926659192263A343C56FD9F
:102CE00019BA3D8E071D5186450BB55019162D8911
:102CF000B42819DE91E12056FE19BA3D8E072995B8
:102D000006C5144D9A541A926808332D14B3E12065
:102D1000572818BA3DCE1C4A8743962359A8559286
:102D200041AB6669960E830057301EBB3CAE308DBA
:102D300092344A2A43926CD192254A2D4A6A51B262
:102D400029A52D8C0701573E1CBB3CAE64D84A59BF
:102D500029199462964C59A918292D52966649163C
:102D6000690157401DBB3CAE300DD3301B96344A31
:102D700086A89246491A25E990645A120F83005793
:102D80005B1ABB3CAE1C8B062D47861C4A86210A6B
:102D9000D32C9642AD380C621A57831ABB3CAE2C2A
:102DA0000ED36838E8489495B2A66C891231C9B13F
:102DB00078180257DF1BBB3CAE544B9328190E62A8
:102DC0006529259D924513234DA949899C0558994C
:102DD0001FBB3C9E348C8621894A83D2140D4392BA
:102DE00063D13024433A254B98340E430058F316F0
:102DF000BB3CDE7438A8F930E8E8F00E65839C45EA
:102E0000C5681E590719BB3CBE1C1B462D8C762479
:102E100051C5E1312A0E431815872102590D1BBBFC
:102E20003CAE1C1B2E6A940C439886C390E6D030AF
:102E300044521D11076908591A17B93DCE7CD0C2FA
:102E400028896255C9A4410B13258AA54104592735
:102E500016BB3CDE1CCBB17438A8399643498ED4DE
:102E6000B3B4A40B592916BB3C9EE19C6339960E62
:102E7000073587921CA967694917593417BB3CBEAF
:102E80002847CA591EE558381CE41C4AF22C2DE983
:102E900001593916BB3CDE7838E75135A90D0735A5
:102EA00087923C4B4BBA0059791EBB3CAE308D9299
:102EB0006C489229499628594A49A7A4B24549AA7B
:102EC0008449A33A08597D1BBB3CAE1CCB86439872
:102ED00025599864A561488AA158C94A59944E0059
:102EE000598220BB3CAE1CCB914119A4A41625B538
:102EF000244AB2244AB248CA226950A224D33100DB
:102F00005B5018BB3CAE61C8A11CCAA11C4B878397
:102F10009A633996237528065B5718BB3CDE7838D0
:102F20002439220D4A9E43E97050732CC772640500
:102F30005B5819BB3CCE78386839940C5B9A895938
:102F4000329CC2344CC334DA005B6618BA3D9E280A
:102F50002B25D170D09168D8911C0987439A43F9E9
:102F6000085B9A1ABB3CDE78382439A223D930C8D2
:102F70007994474318C549351B86005B9D18BB3CB7
:102F8000CE1C4C8777281A863CC7F261C8931C89EF
:102F9000A2E1205B9E18BB3CEE743824652D89B2FB
:102FA0007A940E873887923CCB56015BA218BA3DC3
:102FB000CE74384869346C499465B2240D87286C06
:102FC0001C26005BA418BB3CDE747887946148C261
:102FD0001CCAD241C9F361C8D3E1205BB619BB3C1E
:102FE000DE747887946148B224ABB446A2B2A4518F
:102FF000492BAA005BBD1ABB3CDE7478CAA26438B8
:1030000066E9308451312A26DDA26C0887005BF91D
:103010001BBB3C7E241AC27438855912968A599279
:1030200025619684519AE450065C0F17BB3CDE1C68
:10303000CBB13C2A46599495B250ACE6481D8A0162
:103040005C311EBB3CBEDAB0D49128190E4994D431
:1030500086A41A2559A2F4A22452A5A464025C40B5
:103060001CBB3CAE61D0E26C18B41C1B4E79940CB6
:103070005125AA44439444255D015C4F18BB3CAEE6
:10308000E19447C32909B3A8389C1A87535B944538
:10309000C5085C5E1EBB3C9EE19447C3298F9261CC
:1030A0000BD36418A224AA24C321C9322519120102
:1030B0005E161DBB3CAE344CA3411B925A94D4A265
:1030C000A4322C6DCA924559291BA4AC005E261966
:1030D000BB3CAEA6E1203546A5E131548621891AD4
:1030E000A36294E829005E551CBB3C8E07AD3A0CE8
:1030F000611A0E439864D170D092281A0E526394CC
:1031000048005E7417BB3CAE1C1B2E61351E06AD1D
:103110009C85C341CEB11C0B015E7B1CBB3CAE1C2D
:103120008B86294FA23489D2418EF22849932C1CD8
:1031300086A40E45005E8F18BB3CDE783824399695
:103140000C5B25AC0E87248C8AD5301B015E94184D
:10315000BB3CDE1C4C874392634D49D4256A2B4708
:1031600071160D83005E971ABB3CEE7838E558392E
:103170001BB272326C49982561140D4B1626005E05
:10318000A619BB3CDE783824517138354643986324
:10319000C9B045B5504CA6055F0017BB3C9EE198F1
:1031A000C5599CC559361CB46A9886D52CCE005F8B
:1031B0000F19BB3CEE2447A23C1C0E723A247994B2
:1031C000677116655A32C4025F1519BA3D8E5B9A53
:1031D000A5593268493E0C599AA5599A454998A56E
:1031E000015F5316B93DCE5A25AA25A5E18EE448C4
:1031F000320C3A9223C3215F551BBB3CAE61C8B170
:103200007018722C1A0E522D4C9458499528D232AF
:1032100051055F971DBB3CAE68D0A22CCA06254A5B
:10322000B2D220E9486998D2301986A83194005F5B
:10323000AE1FBB3CAEA44D694A0625878624592A99
:10324000A212254B29296549A2644927AD005FC315
:1032500018BB3CDE1CCCA33CCAD328899372524CC9
:10326000A4300DE3410260001CBB3CAE6418A234E4
:103270004AC22CD1A4A4A2342551256A4CC3344C93
:10328000C30C60271DBB3CAE308D922C516A493275
:103290000C4A294BB4341AB4300DD3304D8621601A
:1032A000F31FBB3CAE68D0A22C190E599445CBA09D
:1032B00054B4D2202659944449C7441B2400620FB9
:1032C0001CBB3CEE241B92284DD26818A2A41E15EC
:1032D000A3244CA2308D44A50E0962101BBB3CEE0A
:1032E0002447A2683824611AA64312B5442DB5A814
:1032F000A59424622662111CBB3CCEA43615A37093
:10330000386851AE449994444A164752D29444B115
:103310000062341CBB3C9E412966D1F0D271504AF8
:1033200049A741A92559340C495365D40262401D6F
:10333000BB3C3E51D1B6301D92344A06254AA268A4
:1033400048A262548C6A952C4C00624B17BB3CEE31
:10335000211A742C1ECE39960E0735C7722C87544D
:103360000062531ABB3CAE1C8B868316A661928505
:1033700062A646491AA6611A6D1300626B1ABB3C1D
:10338000AE1C8B86831AE5519246D2A0E84A1EE510
:103390005134DC110062841BBB3CAE300DB3415193
:1033A000B228892A51AA458998B486D52C5C540044
:1033B00062A41ABB3CAE302D0DC93015A362A40C1B
:1033C0008B9426511EE5493CE40062A51DBB3CAE32
:1033D00068D0A22C19B6522226BA322C52D229A970
:1033E00045C528A94C5A0062D21BBB3CAE6898AABE
:1033F000C31E0D5AA2654A16498352CA4A79944E91
:10340000C30063091CBB3CAE302D0D07A91255A2A9
:103410005419162D4A4A52168A59122D9A00636E73
:103420001DBB3CAE68988AC31046D1302552A80C0B
:103430008BD4120D53B2296D49691063891CBB3CB2
:10344000AE300D87531A0D5AA265CA204959521A37
:10345000B4304D8643980163A51CBB3CAE304D860D
:103460008392B584C930445AA80C83924559A484E8
:1034700095E41663CF1EBB3CAE2C0993E120256179
:103480008E45C3A4941229899468982A5169388575
:103490000163D21FBB3CAE548BB6214B936188C2F3
:1034A00054A958A2484994444AA296281A926108FD
:1034B000641C1DBB3CAE4A9A28C930442D4A2225C3
:1034C0005169B88859920C5B54CCB4451A64441EB7
:1034D000BB3CAE6418A22C4A0665C84A59920C99A6
:1034E00054528641E9A9566919B42864781EBB3C38
:1034F000AE2C0993E1202561346851962983326509
:10350000D9700AB3244B32451364AD20BB3CAE7472
:103510004A866C48DA9261882AB5291A92618892A3
:10352000A86518A224AA28C31064CE1ABB3C8E4BEF
:103530009A44C34B9494B2A5A20D431C0F87341D2B
:103540000EA20A65361EBB3CBE288FC2281AA624CE
:103550004B22254AA296444A22252B656A544CC226
:1035600000657020BB3C8E28292652362C43648986
:10357000122929252DC3524BA22452B2344B925BFF
:1035800000658716BB3CCE1C4C878356CEE22C4F81
:1035900072A40EE5886D1D65B01DBB3CBE74181489
:1035A000AD922651362C43564986A5982551D253C3
:1035B0009B92250065B917BB3CCE1C4C8783986352
:1035C0003936A8611A56B3380A370065E018BB3C93
:1035D0009EE19C6339960E0731C9917A94475994BC
:1035E00065EB1065F61CBB3C7E241AC2281A4E619E
:1035F0005489A2214AA296A81815A321CC91096644
:103600002F18BB3CBE610DD3610DD36187878354F6
:103610008F862CA966C310663E1CBB3CAE6108D3E6
:103620007018C2341C863849A324CA925296342793
:10363000E17010667A1FBA3D9E1C1A9241C9A261C0
:1036400090226948A2245286214BB361C8D26C18DB
:103650001200670918BB3CCE78386839368C629600
:103660000C53311DD6300DD34C02672C17BB3CDEFA
:103670001C4B8783B827E5A41AD55AA2414A732C5C
:1036800005673A1CBB3CAE1C8B86302A0D5318D5FF
:10369000962853A44AD41215932C89C40167651740
:1036A000BB3CDE78B845D5A4361CD41CDA936A54EA
:1036B000D2323505677F1DBB3CAE548BB6618FF2AD
:1036C0006890962C52A6A494884916265192295A9D
:1036D00000679C19BB3CAE6108A3E23084517118AD
:1036E000F27438887B528D4A5A2668071CBB3CAE60
:1036F00068D07264D0916418A230DC4229E9944405
:1037000095A831CD3400680F1CBB3CAE629445C90E
:103710009043C930243AB427D1A0D4B11CCBB164B2
:10372000180268371BBB3CAE5A4B341CA4305C06F5
:1037300049CC92304D86210AD3300D3300683C1CB1
:10374000BB3CAE2CCE866448B24A63714A32455BBC
:10375000A2418BB252561A1400684C18BB3CDE4191
:10376000CE87214CC36108D37018F27438484D5A83
:103770002668631CBB3CAE308D926858942C4CA3D9
:103780006199132555A261CAA33C8A860169FD1E71
:10379000BB3CAE2C0993E1A529198628E9345CA429
:1037A0002C290D5A9495062DCA12006B4C1EBB3C59
:1037B0008E4B1E654B34286DC3A0C459B46451525E
:1037C0004A92254AD224CBC6006B7B18BB3C8E079D
:1037D0002DC7CA4BD4529212A9528FE22C2A46F31B
:1037E000006BD218BB3CDE7438A8F1704E8783D4CE
:1037F000341C942CCA8643AC016C601EBB3C9EB446
:103800009464611226953159B244A94549454BA6A5
:103810002C89922C4CC2416CA11BBB3C9E6C08A312
:10382000C6288BB22D8792618B6A611289621665F8
:1038300089286CD519BB3C9EB49823831287693EB6
:103840000C51988969568A06A516066CE81ABB3C85
:103850009E300EB36C18925A9CA5611A0D8A1AA656
:10386000611A46C3106D4F1ABB3C9E288D8AD290B8
:103870003426C5A4A9256A99929EB2444F72016D5F
:103880006A1CBB3C9E304E86250BA36818C52C19BC
:10389000B6A43655A2921625B548136D881BBB3CBD
:1038A0009EA897E63049862D09A368988ADBB06404
:1038B0006192854996096DD81DBB3C9E2C8F86D19F
:1038C000940C4945C9A26418A22C9B924E8352477E
:1038D000CA0A006E381FBB3C9E280BA3681BB4DAD3
:1038E000920C599494B224198628895AA24A54B247
:1038F00028006E9024BB3C9E6818A2248BB26450B2
:10390000A224CB94414A6A51920C43949592444A22
:103910004A49A2444A006ED11EBB3C9E6CD0A22CE8
:103920005E8A4929190649C9A46850B452364859D3
:10393000298B1400706B17BB3CDE1CCBA3AC548CE2
:103940009230CBA12447EA595AD205706F18BB3C7C
:10395000BE1C4B86A5294BB44A1815D3300D2B59E4
:1039600053590270B918BB3CDE1CCBB141CE872144
:103970004CC3341C861C4FA24A161571361BBB3C27
:10398000AE2CCE92506A1A06454A93D62809A32C2B
:10399000AA2AA54A1615724718BB3CAE300DD33083
:1039A0001D4E399663C310A6619AC5511E01725906
:1039B00018BB3C9EE190C7591A86C321D6917A1450
:1039C00067D998431A0072691EBB3CAE2C4CB230CA
:1039D0008986835251B2A4242515A9A294DA4A9566
:1039E000A892290072791EBB3CAE304BA24119B29D
:1039F0004A9825C9304462A60C831215B3244CC3DF
:103A00006C0273A91BBB3CEE21197424C7726819A0
:103A1000A62C09B3245C4A62528D924C1473B01EDA
:103A2000BB3CDE411992AC94D4A2A432246D515215
:103A30008B929A944462528D924C1B74061ABB3C32
:103A4000CEE1A96518A2246A89A2E1294CA341D339
:103A500032351F8600751F15BB3CEE5A9CC5C32529
:103A6000ACE6C390E7588EA5C321752818BA3C9ED2
:103A7000E19255B2CA70C92A5965B864952C1333BE
:103A80003112753515BA3DCE1C4A874B56192E5941
:103A900025AB0CD7B0751075C51ABB3CEE78382431
:103AA00039341CA23054864129B5744A34254AB5AC
:103AB0006C767B1BBB3C9E21895A8A499484C561E4
:103AC0005074241BD6301DE6281B0E02767E18ABE0
:103AD0003C8E073587726418C2344CC36108D330FA
:103AE0000D872102768419BA3DAE2CAC0DC9308900
:103AF000523A289954924A523AA852A60076D81FB0
:103B0000BB3CDE1C19D6244AA3241B0E591285592E
:103B1000120E83964449964449321C04770B1ABB13
:103B20003C9EE11C0F831C0F072D0C87214BC228E4
:103B30001AD6301D2600771F17BA3DCE743884F987
:103B4000301687244C86B0341CB228B40077401954
:103B5000BB3CBEE270CE87218E878316868392257A
:103B6000C91015D3610277ED1FBB3C9E6818921CEB
:103B70005B06A59495B26448062DC7A22C4AA224E0
:103B80008BA36C180278011EBB3CDE4119C4AC94B7
:103B900095A2218912691892284DA241498634893B
:103BA000DA1105786C1CBB3CDEE190A5D13055A242
:103BB000E430284D49655812295C8A49A44B0378A2
:103BC0009F1FBB3CDEA4321CA44A2D4AA625559259
:103BD00061A985C930284BA225521266510078C1CF
:103BE0001FBB3CDE2C19A2244C86216A5BA26431E7
:103BF00025C9304449545AA22CB1848B12793A1405
:103C0000AB3C9EE1CE341CD43C2A4659948562518B
:103C100005793E1ABB3C9EB4980D529CA5D1A06973
:103C2000A11265499886699826C31079BB1ABB3CD6
:103C3000DE7438484963544C1A87218F87534B945C
:103C40000C4A142B0079CD1BBB3C3E291BD3687852
:103C5000895AA2482925CA3028611AA6611A660025
:103C600079FB1BBB3CBEDA412A0E4B948516254CD2
:103C7000A221D132254A6A69186D007A0B1DBB3C1E
:103C8000BE6450A6AC942543326839A60C921285C6
:103C9000D2A014D3304D86217A971EBA3DDE7038FB
:103CA000286152CA92E1904459940CD3944491549F
:103CB0008992681814007B141BBB3C9E301D9241F6
:103CC00069AA0D4934E4D8100E39362C838EA5E943
:103CD000307B521FBB3C9E341C9441AA64C3298F85
:103CE000924189F228199428C992281994285600DB
:103CF0007B7E1BBB3C9E301D9241692A6669126B1C
:103D0000923228526394C459381C027B8020BB3CF9
:103D10009E301D92614AA2301AA4248DA221895A94
:103D2000A26848A296281A922856007B971CBB3C92
:103D30009E21199452251986300D87214CC3614864
:103D4000B36C38684531037BB11FBB3CAE301D926C
:103D500021899252258B8663545B862849A4248A44
:103D600086302A4643027C981DBB3CAE304B4AE16C
:103D7000364461364869342C4BA824A2128551344C
:103D80004CC5007CFB15B93DEEE19C45C39C67C961
:103D900070CCA2A41655222D7D2018BB3C9EE19C20
:103DA0000F439E0E07314A87210EA3E116956C0240
:103DB0007D2217BB3CDE7838A7C3531645838E643B
:103DC000D970CE4A259B007EBF1DBB3CAE2C09B3EB
:103DD000A83844D1B80D52B286513244491C95A43A
:103DE000249934017ECF1DBB3CAE68D0D22C2A264C
:103DF00051124D59254DB24119B21C4BB54C1A8682
:103E0000007EDC1EBB3CAE2CCE86282B2589122DD5
:103E1000519A2559A40DCB2067999225DAA0007EEE
:103E2000DD1CBB3CAE2CCE86288BB224192E521240
:103E3000B5D48643926361A48407017EDF1EBB3C38
:103E4000AE304D862109D3A4961C86284B1A936860
:103E500088921C6952A264CA067F161EBB3CAE3013
:103E60004D862189D224190E4A8E24C39044496577
:103E7000784C9A96CA140A7F511ABA3D8E071D9142
:103E8000B2646951B2482A2989926C49A2853A22C2
:103E90000F800C18BB3C8E073587F2E190442D5102
:103EA0004BD412B5442D514B3C803314BA3D8E8710
:103EB000286C1CC6E230360E071DCAA108804A20B5
:103EC000BB3C8E210A93441A922E43D2A2741992BB
:103ED00016A58B922CC92025536392450080541E51
:103EE000BB3C8E5B9444499624C3B28549160E8729
:103EF000A41626593628D5240BD50080FD1FBB3CBF
:103F0000AEB054498645872A833224593C28A52CD3
:103F1000D106254AB2244A22650881111EBB3C9E67
:103F20002D4CC22C498665479A9216A5B294928A66
:103F3000D2A3940C43A2840181EA10B73EAE70185C
:103F40005475B80E5775B806828216BB3CBEDA703F
:103F5000D0EA946190B3388BB33899732C0682F908
:103F600018BB3CBEDA70D08AC32DAA26519AD486DB
:103F7000839A6339960283DC1ABB3CBEDA70D0EABE
:103F8000D8342C6192A5496D386849352A69990061
:103F900084DD1BBB3CBEDA70D08A499426D1102543
:103FA000CD61369C2A514B940C070185CF1FBB3C39
:103FB000CE281B0E6294548643D269199428C99264
:103FC0002119965E946450AA8900884C1ABB3CAEB5
:103FD000689072288773281986448D92344CC334B4
:103FE0004CC36C02886818BB3CDE7838E7C390A7E6
:103FF000C3414CA2304A422D534AA928898119BB9A
:104000003C8E0731498753258A866B3C1CB4EA9263
:104010002343382A0089C61CBB3C9E6CD0A22C19B5
:1040200092C6A42D4A4A4B4F492D4C33A925AA6468
:104030000389C81CBB3CBE284DA24169CA92341BEF
:1040400086300DA362548C2A99920DD92089E31FE2
:10405000BB3CAE6C5086A852CA8621929244C98657
:1040600043D2940D87A4294B4A35290289E61EBB09
:104070003C9E381BB2A8180DCAB07419968A521902
:104080000E5994D412A53644CA128BA117BB3C9E7C
:10409000B49863F97008D3300DD3244AB534CCB149
:1040A0000C8BB01ABB3C9E1C8C061DCBB164CEA2FF
:1040B000418BF2284FC44809A36C108BBA1BBB3C40
:1040C0009EB49843499E254B1A655156093335A92C
:1040D0004552166583008BBE19BB3C9E6C08A37AC3
:1040E0001467C38E25C316652DA1966649BA098B40
:1040F000C41BBB3C9E6818A2308FAA49654C9361D3
:1041000088C23489522D0D732C038BDD1BBB3C9E62
:10411000588B762C5B86210AD3308D062DCA32252A
:104120002B0D7296008BF418BB3C9EAC4B3EC859CD
:104130003265A541AB8449A394945AC26C8C371A5A
:10414000BB3CCE280E4B599469611487E130284A54
:104150009864613AAC61048D2D1EBB3C8E4109B35D
:10416000244C2AC392884A2952DA949EA2452927D0
:1041700051AA650A008D341EBB3C8E418BB252524F
:104180001B925A94D4A2A4322C6D4A5B94554AC314
:104190009664018D771DBB3CBE1C8B8668D0C234F3
:1041A000190E6194265196244396948645CF862114
:1041B0008F6C1BBB3CAE301B92414A436518942C5C
:1041C0001C92418BB3A534A6C534028F6F1CBB3C37
:1041D0009E300DC34119943053A2A4324869982EE1
:1041E000A52D09A3AC92068F7D1DBB3CBEE2A01499
:1041F000B368780AB36189925A120D521A26C39095
:10420000245A94058F911EBB3CAE6C4806252A0E9D
:10421000918E948683126599922D89B24552326CA3
:1042200071028FC71ABB3C9E384CC3641872249A23
:104230008A5912A6611A865A9267C3108FD41CBB82
:104240003C9E5C8A8630CAB1E1A445955A544CA282
:10425000248BB4A49E0D43008FD81ABB3C9E6818D3
:10426000A234AC63D9A664511255A2C634ACE4D9C9
:1042700030048FD91ABB3C9E300EF3E19086513149
:104280004BC26A968489162579360C018FDB1ABBDE
:104290003C9E2C0AA36232CC513415875363544C94
:1042A000B24A1865C31090011BBB3C9EAC4B180D65
:1042B0003A928D69320C51986649186551A26AC3C9
:1042C0001090021BBB3C9E584B8634CC87439846CB
:1042D000831665A5418BB228C9B3610890531BBBF7
:1042E0003C9EAC4B980C439E4D831665A5418BB20A
:1042F000D2202579360C0190A31FBB3C8ECB1055E4
:10430000A296CAB0D4A2A41625D13024518B12553E
:104310004A5992654A0690AE1DBB3CAE6C90B26C99
:1043200058A2A453D2D3A0444937A56D582A5A1293
:10433000E5210090E821BB3CBE6C784AB224AA4437
:104340004932DCA1241A9428C99228C9122519944B
:104350005296640090FD20BB3CBE68500625CA9270
:1043600096E158C986244AA4245286246A51A2217F
:10437000A9454906914D1EBB3C8E41199472521EAF
:1043800056A5320C891266493828619664C3926931
:10439000C92091771EBB3C8E41AB44499644C34132
:1043A000AAD4224519B67850862DC98665D8922C94
:1043B00091CC17BB3C9EE19495B2D270CA4A596920
:1043C00038C7C3391D0E0294AE1FBB3C9E1CCB06E2
:1043D00069889272920C5292458332285156CA9241
:1043E0005226D592610894FE1BBB3C9E348C9241B0
:1043F000596A69120D07A96938488D517189936806
:104400000895011DBB3CAE24EA524AC36550C22C3C
:104410005ADAA2A432246D5152939230D104952ECF
:104420001FBB3C9E64CAB26151B2444B868394D494
:1044300086532D498625CA3245CA92681095ED1AD1
:10444000BB3C9E6C987235533365181251D3924C15
:10445000AA2959266AFA0096321EBB3C8E210AA36D
:10446000AC920CC74A3624514BD4A2449552966460
:104470006112651200964421BB3C8E21AA442DA5F1
:104480002CD1862149B4244A3A2591A2D49252963D
:10449000845912460A0096641EBB3C8E212B55A2FD
:1044A00024CA12295994308B8653964D495B14497E
:1044B00059A46A0096F618BB3C9EE19C0E4F492910
:1044C0009C3549CBA461C8A17CC73400976218BA57
:1044D0003D8E873047E2E12095A421924AD21049CF
:1044E000A5E11D0997F319BB3CDE78386679120EF9
:1044F000071D1E86300D87214CC3618800987519F1
:10450000BB3C8E07351F86300DA362548C8A9112F6
:10451000477128C9090098911FBB3CBE68508A5951
:10452000320C4A291B06A516255D9416A522554A6C
:104530006192685A009F201CBA3D8E2119923C1945
:104540009221C993E10E4A4A9454244BA2B40CCA56
:10455000140000BF0205040506010406152600F933
:1045600018FA19F904E10AAE2258200BD51CF58778
:10457000FFFF7F17002119D51CF587532316588B91
:10458000F417879CFB0011689E0D920F2F002224C8
:10459000D51CF58743A28845065164104506516431
:1045A00010450651641045065164104506F9F0FFA8
:1045B00013002343D51CF587EB838C350659639094
:1045C000350659638C45C6380F8CF1C018171A830D
:1045D000AC31C81A83AC31C62263A007C478608CA2
:1045E00007C61964AC31C81A83AC31061B632C3280
:1045F000C622637C78243BD51CF5875B2412689A1D
:10460000520C91900C114488430411011141560938
:1046100084654D6B8925464259449045043181108B
:1046200041CA182490F240302EAD5622F561140094
:104630002541D51CF587DBE410720A298810A204F5
:10464000294490500A112410E3100A049D401611C9
:104650000412582015956AA81D344821810C52482F
:1046600020831022C820848C4448398598F2E13692
:10467000002641D51CF587EBC621A65411441142F2
:1046800012212411421221631141186AC799861A16
:104690000984884206114590420219A42042CC2187
:1046A000E494428C3145A4F280286990634AF87002
:1046B0001B002710D51CF5875B4292487F1FFE7FA9
:1046C00006002823D51CF5877B2396675C7935483F
:1046D000450A92487F9244124B24B18A241A686298
:1046E00089448A02002925D51CF587BD210BB462B7
:1046F00015492C9148122949227D90440A125820CC
:10470000058BB35E8143860F0E002A29D51CF587E1
:104710009F2591B6C6204398128628E40161DC2AC1
:10472000D038C488208A0C920A218898A1C2111F0F
:104730007E14002B18D51CF5875F2091BEF58020D4
:104740000F08F2805024D2F7E177012C15D51CF523
:1047500087FFFF9D110B34CFC012499C2289630152
:104760002D0ED51CF587FFCD67BE0FFF97002E11CC
:10477000D51CF587FFFF2281E659907CB805002FF4
:1047800029D51CF58783818E484112491C91C4119B
:10479000294822812412482281241248228124128D
:1047A000482281448E0FDB003043D51CF587FBC5C2
:1047B000A5B592092591420E31C510530C29A610BA
:1047C000630A29231042C8108490310621648C4169
:1047D000081183506114428E21A518628A21A618FF
:1047E000724821C80493D64AAE7C783116D51CF5A0
:1047F0008717C8330D2DC548202C1012E9FFBF0FB5
:104800000F3221D51CF587F3C625C55211E610439A
:10481000904024D2208904D25E05E92249C1FC3EA1
:104820009C063328D51CF587F3C525C552112609EA
:1048300053220D9276186AA8A558451A0A889C61D9
:10484000C831C220A654331F5E00342FD51CF58713
:10485000474624B07AC65D6D04C248206C08B2C6D3
:10486000206B0CA206218910924621E881501E0877
:10487000E581E048A4F7E13A003525D51CF587D35A
:10488000EE788744BAB8144B0D9152CE3844924812
:1048900067C621861C624E38A7A5D5CC870736355A
:1048A000D51CF587FBC5A5B592090595221289236C
:1048B00052C1A8861A32A39C52C8A10C39C4904395
:1048C0000C39C4904319724821A98892D64AAE7C0B
:1048D0007801003721D51CF587D3EE787144124753
:1048E000A4E288248E48C511A938220549A420894C
:1048F000E4C323003839D51CF587F3A629C5521126
:104900000591520E31E410430E31041142521164EC
:10491000298618094511421031141A86205208229E
:104920008520528A21C708839852CD7C783935D5A5
:104930001CF587F3C5A5B592092591420E31E450C7
:10494000861C62C821861C624A29A70C731C6ACA8D
:104950000412A9382249A2905482416CA5663E3CBB
:1049600001003A16D51CF587FF1A81E659907C782C
:104970008940F32C483EDC023B1CD51CF587FF1A0E
:1049800081E659907C7869C402CD33B04412A748BF
:10499000E29881013C1BD51CF5879F0A72C0E20E8C
:1049A000BBE70A34F08206DE6089648A0F0F023D9D
:1049B0001BD51CF587BFFD80200F08F280F830F86A
:1049C00080200F08F280F8F02F023E19D51CF587E1
:1049D0002F073A6481E8E17B5633EDB03B671E89CF
:1049E000E2C3073F25D51CF58753A529C59011E6DD
:1049F000104390400405442205092CAF8254A43E84
:104A0000240934CF82E4C3034043D51CF587FBA6B9
:104A100029C59011E55085A4518641641035065989
:104A2000630C23C818A210328620858C214821638C
:104A30000842CA18A304338860648C45C8288110D2
:104A4000224B3C8224A6163B1FAE034138D51CF5F1
:104A50008717C21C728A051668DC08C38D301A09D4
:104A6000848D31D818449141D4284331D4903BE30C
:104A700010430E31231142122144913116116491D9
:104A80000F9701423AD51CF587CB4B35E40E21C771
:104A900090530A41A410440A41A490430C21C7B882
:104AA000D3D033E49442102924114212212411421C
:104AB0001221049142CA29CFB8C33E9C07432AD58C
:104AC0001CF587FBA6A9D4CE11C614434A41849095
:104AD000240C8124D24F92486241E21443CC11E667
:104AE00034A59AF9701E00443ED51CF587CB4B3592
:104AF000E40E21C710530C39A510440A41A4904478
:104B000008498490440849849044084984904408A2
:104B100049A310440A41A490430C31C510624E438E
:104B20002CA90F2F004522D51CF587CB0F84F2400E
:104B3000280F8442227DD11DEF9048BFF840280FF6
:104B400084F240F8701A004616D51CF587D3CF7C46
:104B50008644FA62431D2291FEFBF00C004732D5D9
:104B60001CF587FBC525D58E19E55085A061480A3F
:104B700067447A0511521021051192082189148287
:104B800048218818728839C21C97143B1FCE0348ED
:104B900046D51CF587CB0491421029049142102977
:104BA0000491421029049142102904914210290FC6
:104BB00084F240280F844210290491421029049164
:104BC0004210290491421029049142102904914273
:104BD00010F9701A004913D51CF587D30D758D4453
:104BE000FAFFC71AEA3E1C074A1CD51CF587EB2CB6
:104BF000718D44FAFF5430240D52501145AD955C2F
:104C0000F9F006004B40D51CF587C3041542102966
:104C1000E410431D5208228424328822A22812CA9A
:104C20004A0CB5C41223822C328822A32442482283
:104C3000852052CA21A618728821A714820A2189C8
:104C40007C380D004C11D51CF587CB24D2FFFFC555
:104C500067BE0FB7014D4ED51CF587C3630D4212D9
:104C6000212411524E21E514628A21A61872C62110
:104C7000671C42C2140821610A84105104214414A3
:104C8000410819631042C61884101208950821893A
:104C90001092082189109208218910920821897C9C
:104CA000380D004E4DD51CF587CB0491421029E5F7
:104CB00090520E29C690720A29A790820829240CC6
:104CC000420A09649042C418A41041153286208516
:104CD0000C12482164045208418594538831851888
:104CE00053C829859C520822852052481A1F4E031A
:104CF0004F3BD51CF587F3A629C59011E61043213B
:104D0000520822842832882283283288228328323B
:104D100088228328328822832842861A85205208D6
:104D200022863A4618C4946AE6C3035029D51CF576
:104D300087CB2C35E40E29C690530A41A410440AAF
:104D400041A410440A39A59062CC33EEB04422FD50
:104D5000FBF00E005143D51CF587F3A629C5901131
:104D6000E610530A41A41044CA5064104506516429
:104D700010450651641045065164104506516410F3
:104D8000450841A410440C3115298829D50E1C92E0
:104D9000C4D4903B1F3800523ED51CF587CB2C3530
:104DA000E40E21C790530A41A410440A41A41044C0
:104DB0000A39C490628C3B0DB14408498490440A7E
:104DC00041A410440C39C414430E31E49442102918
:104DD00004950F97015330D51CF587FBA6A9D490F5
:104DE00011C614330E41E29048248906A287DE8161
:104DF00027124922314191221429039172C4310EA4
:104E000031763E9C075416D51CF587C30F08F280F7
:104E1000200F884522FDFFDF8717005542D51CF57E
:104E200087CB241142122124114212212411421253
:104E30002124114212212411421221241142122153
:104E40002411421221241142122124114212210460
:104E500095420E316698D3D262E7C37900563BD5AE
:104E60001CF587C34491411419448D421029041143
:104E700033D038E48C430C41C38C44CA4884103589
:104E8000C858648C450461438C46C268C899674120
:104E900012891C527C7802005752D51CF587BB84BE
:104EA0008D31D818A38832C628838C41C834283263
:104EB00006354619A38851C6286294218C188504AA
:104EC000234621615648106284618C18411C23CC12
:104ED00031A39C42CA29A49C420A1A66A461461ABC
:104EE00066A4614612487C380E005839D51CF587F7
:104EF000C32491421031D4216624424822642C22DA
:104F0000C8228134E4CC3390C0028D430D3122C8D5
:104F100022822842482284206228440A4184104583
:104F20003E5C065929D51CF587C3449141122904DA
:104F300091420E65C8218524424822642C22C82251
:104F40006234D4CE33AF44FAEFC30B005A2ED51CD3
:104F5000F587CB0F84F240280F0448228154249017
:104F6000C411092491402A1248E28804923858203A
:104F70000F08F280200F880F97015B14D51CF5876E
:104F80003B2C718944FAFFFF224BDC870A005C2B23
:104F9000D51CF587BD1189249148128924914812A6
:104FA00089249148128924914812891C92C8214968
:104FB00024924422870C1F0E015D12D51CF5872B0D
:104FC0000D7591FEFF7FA8F72103005E20D51CF52B
:104FD000871784249140E3501B813022C81A64282B
:104FE00042082266A870C287FF87015F13D51CF5AF
:104FF00087FFFF671F18E381311E181F1A00601A10
:10500000D51CF5873B818A29E690249258C11289E4
:105010009CE690E2C3FF4100612AD51CF5877FE141
:10502000B0951A2AC2A48048A4123BCE3C530C2946
:105030000491424E29C498620432EFB85406F970C4
:105040001A006233D51CF5872324D24F14D5903B28
:105050004718530C754A21881482482188148248C5
:105060002188148248218798628831C3187746487E
:10507000688CF2E1016321D51CF5877FC234A51845
:1050800032C2986228240C89F42489E508744441CA
:105090002DA9663E9C076435D51CF5878324D2A7CD
:1050A0008A20A81D678C38869852082285205208CD
:1050B0002285205208228520520822A51C628829B8
:1050C000C688731C6AAA08F2E13400652CD51CF569
:1050D000877FC134A5582AC21C62C8198814824827
:1050E000792094074279201412492C91A0908C3099
:1050F000A7A5D5CC87F300661CD51CF58763A62928
:10510000C552110511231289546BA86324D2FFFBE9
:10511000F006006736D51CF587BF5FC838AF3C1076
:105120000A21E510331031E410430E290515511200
:10513000534AA54562810EB9F30A41849044084957
:10514000849C61CC3B6CA10E006836D51CF5872B86
:1051500024D26F94440242EEA0508E29C414431D01
:1051600062C821861C62C821861C62C821861C6216
:10517000C821861C62C821861C62C8211F4E036993
:1051800019D51CF587534312582289E3838C1A16CC
:10519000E9FF1A4BDC87E3006A1FD51CF5877323F0
:1051A0001658C5F181554B8BF4FF53C190244A41E9
:1051B0004594B45672E6036B35D51CF5872324D28B
:1051C000EF94424C31A494434841649444045924DC
:1051D0001096B112C8228328324A22A42052CA2132
:1051E000861C628A21A71482CA87CB006C12D51C48
:1051F000F5872B896591FEFFC7DCF13EDC066D1D4E
:10520000D51CF5873F4D0219A43C20C80363946068
:105210004219F4FFFFFFFFDF87CB006E35D51CF589
:1052200087BF4D46492420E40E0AE598424C31D40C
:1052300021861C62C821861C62C821861C62C82186
:10524000861C62C821861C62C821861CF2E13600D9
:105250006F30D51CF5877FC1B4B41832C19C528A17
:10526000218714920821891092082189109208211F
:105270008914728829861C134C622AB9F2E1050050
:105280007034D51CF587BF4D44510DB9738431C5B9
:1052900050A714824821881482482188148248210A
:1052A00088147288298698238C71A721228A2291DA
:1052B000DE0705007132D51CF587BF5F0441ED386C
:1052C00063C431C4944210290491421029049142CC
:1052D00010290491421031E410434C31469CE350B4
:1052E000534590485F06721CD51CF587BF4E464952
:1052F00024A4F34C0AE418234E81059248FF7D78DC
:1053000005007328D51CF5877FE1B095DA31E218E6
:1053100072C62128A012CF530E41138B1189988198
:105320004839C21C87D8421FCE03741DD51CF5878F
:1053300057492471C8A9B9E32D12E9BF2294096421
:10534000AD959AF9701C007535D51CF587BF4D0ECB
:1053500031E410430E31E410430E31E410430E31BA
:10536000E410430E31E410430E31E410430E31A536
:105370009463C2390E355504F9701B007630D51C84
:10538000F5873F5DD228248D421031038D43CE38FE
:10539000C41044CA48A40C35C858648C4504612420
:1053A0008C869C79E69548E2F8F004007743D51C9A
:1053B000F587BF4C16196391318A20640C42066D43
:1053C0000C420619A38C51C428431831CA10468CCC
:1053D000428208438C428210230C638439469853DE
:1053E00086398594534841849034CCF8701C0078F9
:1053F0002FD51CF587BF4D1029C590430A4984104D
:105400004504592490769E790516681C624410451F
:1054100006518410440C315521887C380D007939AF
:10542000D51CF587BF4D12210491421031E4104381
:10543000CE40C31044CA508310450651640C460246
:1054400061240C37C270E715582089D40A84AC2136
:10545000CA4A0CBDF2C1007A1DD51CF5873FFECCAF
:1054600007E9607915A4C1F2CA7B2094074279202C
:105470007C380D007B21D51CF587270E4B4B29F37B
:1054800048A40F12775C812616392489F48B059E77
:10549000A7586A28037C0ED51CF5875324D2FFFF3A
:1054A000FFE7017D1FD51CF587D3C725A660912492
:1054B000D227493CCF72E591487FB038B3D44A0C2B
:1054C0007D007E17D51CF5877FF314515628E30124
:1054D000510641AE7CF87F0200A00BD51CF587FF7A
:1054E000FF7F1700A118D51CF58753049A6783E442
:1054F0000334E414E91FAC17C7872700A240D51C6A
:10550000F58737482471C8018B4BAA9D12902982D8
:105510008461C818231842C6088690A108198A9089
:10552000A1C8208A0CA2C8188C8841C229610C81AC
:105530005028A8A5C58E1B72F6610100A32BD51CAF
:10554000F587FBC5A5B592092495121489144C2C36
:1055500073449248174724F098605618E501418A31
:105560005025A0F2E13800A429D51CF5878F8B24A3
:10557000CE3B2DAD540649E30C34CE40E30C440A37
:10558000492594D4CE334314314E50E2C3BF0900B1
:10559000A52FD51CF587C344114210290411431DC2
:1055A000624622842442C6228230124643CE3C0305
:1055B0000973C7632412E68EC748A43EBC0000A648
:1055C00011D51CF5875324D2FFF7012791FE9F07C1
:1055D000A73AD51CF5874BA629C55211E610331002
:1055E00031229158A281A82935C4418498430C39AD
:1055F000C4906308414CA986A0892512240E39C3A2
:10560000147344414DA9663EE401A818D51CF587E2
:10561000C541862AA2A4224A2AA2A841C687FFFF22
:105620001500A948D51CF5875F284E29864829868C
:105630000413082101053246506188110819618858
:105640001146196284498D30A9112635C208848813
:1056500031C2105418630415C618020542C62082D0
:105660009462C8694A35F3E13C00AA25D51CF58748
:10567000F3C621A698208385421A5A4AAD440849A8
:10568000A3904446494C2D96BA3BDE87BF0E00AB33
:105690002ED51CF587FF5A30810D32541124154147
:1056A00012192491411219441551541145155154A0
:1056B00011451541D6208305133E7C0800AC10D55A
:1056C0001CF587FF4BEE7891DE873F0400AD0ED5C9
:1056D0001CF587FFCD67BE0FFF9700AE47D51CF5C1
:1056E000875F284E298648294609424648810C2171
:1056F000C61862464618621A448C30441A230C912C
:10570000C608432032C2101319818431861863847D
:10571000318618E390430822C50C739A52CD7C3829
:105720000F00AF0ED51CF587E34B6D1FFEFF470042
:10573000B01CD51CF587F3A625A6541125114212DD
:10574000212415519462C8950FFF1F04B120D51C68
:10575000F5876F91486F3D20C803823C201489F47F
:10576000FBC03E20C803823C203E5C06B21ED51C16
:10577000F5874BC5A5B51419448D32E488049257BA
:105780003D02096489FBF0BF0A00B321D51CF587EF
:105790004BC5A5B5D620430E779C79471239943076
:1057A000231142D25AC9950FFFCB00B414D51CF572
:1057B0008789304924B0402A8E293EFCFFEB00B592
:1057C0003BD51CF5873F4D0E31E410430E31E410FC
:1057D000430E31E410430E31E410430E31E4104324
:1057E0000E31E410430E31A51421C4094B3C40C4D2
:1057F000124650641012E97D6000B64CD51CF58746
:105800004B0BB5E38C12A32C31CA12A32C31CA1254
:10581000A32C318C12C328314E12032131941183F1
:10582000113118118311311811831131181183119D
:10583000311811831131181183113118118311316D
:105840001811E3431900B711D51CF587FF0D02CDE0
:10585000B320F9F0BF0C00B813D51CF587FFFFF794
:10586000C524B1B031064BAE2000B913D51CF58765
:105870005B031677B930869CFF3EFC2F03BA2AD50E
:105880001CF587FBC521A6D620241142D230230D5A
:1058900033D230230D33D2282411429462E8910F81
:1058A000843BDE87BF0E00BB2ED51CF587FF523030
:1058B000810D321611651151161964914116192482
:1058C000155150110515515011251151D420830542
:1058D000133E7C0C00BC4ED51CF587BD81C22968E7
:1058E00010830609629C81C619681882861969149A
:1058F0009246196A10A206196B0C124724714412C1
:10590000472464A841482284A4414A1A438481C69A
:105910001861A021A643823243A842D040210D390C
:105920003EA401BD4DD51CF587BD81C22968107309
:105930000809629C81862168989186196994A1461C
:10594000196A10A206196B0C1247247144124724DD
:10595000A2A8214E1A6108728610649C818619687B
:105960009CE99042D028049132942889A50F6100C7
:10597000BE4FD51CF587B9F25019458C51861A8453
:105980001C43C831832C228809658871C420819802
:10599000240642812832462471441247247190A182
:1059A00008196A1092C828690C83C81061A0318454
:1059B00018680855C65065A081041A727C4803BF58
:1059C00028D51CF5874B049A6741F2012791820480
:1059D000965741020B2491420111241031E4987032
:1059E0001053AA950F2F00C03ED51C3517B23C04AA
:1059F000CB141F9C30879C6281051A37C270238CA0
:105A0000460261630C360651641035CA500C35E409
:105A1000CE38C49043CC488490440851648C4504EB
:105A200059E4C36500C13FD51CF5074140D350334D
:105A3000507CB0C21C728A051668DC08C38D301A0F
:105A400009848D31D818449141D4284331D4903BF6
:105A5000E310430E31231142122144913116116497
:105A6000910F9701C243D51C750A7344D3D22AA162
:105A70002832C80A46C030879C6281051A37C27036
:105A8000238C460261630C360651641035CA500CF3
:105A900035E4CE38C49043CC488490440851648C9B
:105AA000450459E4C36500C342D51CB5210F897173
:105AB000DC2101A940CA073ACC21A7586081C68DD4
:105AC00030DC08A39140D818838D411419448D32DD
:105AD00014430DB9330E31E4103312212411421452
