:020000040800F2
:10000000780D0020810200082F480008E73800081A
:100010002D480008611E0008BD4B000800000000CC
:10002000000000000000000000000000AF490008D0
:100030000920000800000000AD490008B14900088F
:100040009B0200089B0200089B0200089B0200081C
:100050009B0200089B0200089B0200089B0200080C
:100060009B0200089B0200089B0200089B020008FC
:100070009B0200089B0200089B0200089B020008EC
:10008000FD1F00089B0200089B0200089B0200085D
:100090009B0200089B0200089B0200089B020008CC
:1000A0009B0200089B0200089B0200089B020008BC
:1000B0009B0200089B0200089B020008E938000828
:1000C0009B0200089B0200089B0200089B0200089C
:1000D0009B0200089B0200089B0200089B0200088C
:1000E0009B0200089B0200089B0200089B0200087C
:1000F0009B0200089B0200089B0200089B0200086C
:100100009B0200089B0200089B0200089B0200085B
:100110009B0200089B0200089B0200089B0200084B
:100120009B0200089B0200089B0200089B0200083B
:1001300000F002F800F094F80AA090E8000C824465
:100140008344AAF10107DA4501D100F089F8AFF242
:10015000090EBAE80F0013F0010F18BFFB1A43F0A5
:1001600001031847B07B0000D07B0000103A24BF89
:1001700078C878C1FAD8520724BF30C830C144BF0C
:1001800004680C607047000000230024002500264E
:10019000103A28BF78C1FBD8520728BF30C148BFEA
:1001A0000B6070476E2900F09183702900F0DB84AA
:1001B000662906F08783652906F08483672906F09F
:1001C0008183612906F0808303681B0A28BF41F000
:1001D0008001692900F0D480642900F0D18075295C
:1001E00000F0CE806F2900F06984782900F0A784A0
:1001F000E92900F00384E42900F00084F52900F0E7
:10020000FD83EF2900F06684F82900F0A6840368D6
:10021000DB0928BF41F08001632901F0A780732921
:1002200001F0AC80E32901F0B780F32901F0BC8034
:10023000002070471FB59DE8030000F02FFA01F081
:1002400013F904000020002106F038F9401C60601A
:100250000020002106F01CF9E0601FBD10B510BDA4
:1002600001F0D5F81146FFF7E5FF04F02BFF00F091
:1002700087F903B4FFF7F2FF03BC01F0C1F80000F7
:100280000948804709480047FEE7FEE7FEE7FEE72A
:10029000FEE7FEE7FEE7FEE7FEE7FEE70448054966
:1002A000054A064B70470000134A00083101000858
:1002B00078070020780D00207809002078090020B8
:1002C00070B5064600F0CEF9056806F10B0020F087
:1002D0000704B4429CBF002070BD2B466A68BAB1C7
:1002E0001068A04210D304F1080188423CBF506856
:1002F000586007D35168101941601168091B0160EB
:1003000058601460101D70BD13465268002AE7D172
:100310002146284600F0AEF90028DED170BD00006D
:100320007CB51D4616460C00009001D02044401EAE
:10033000074B7B442A4669460190304600F0DFFABD
:1003400005461CB10020694600F0ECFA28467CBD49
:10035000F90500000FB41CB5084B06AA7B4469469A
:100360000090059800F0CBFA04460020694600F0A2
:10037000D9FA20461CBC5DF814FB0000C50500003E
:100380002DE9F0410646002410687529314616A56E
:1003900010D000F007FA002802DA404213A507E067
:1003A00031688A0701D512A502E0490704D511A5D5
:1003B000012401E000F0FFF900210A2206F12407E0
:1003C00009E0B0FBF2FCB0FBF2F302FB1C003030A2
:1003D00078541846491C0028F3D123462A46304653
:1003E000BDE8F04100F019BA000000002D00000047
:1003F0002B000000200000002DE9F05F8946044634
:100400004FF0000ADFF874B1FB44C0F820A020468A
:10041000E1688847002874D0252806D0D4E9012156
:100420009047206A401C2062F1E700265F46204684
:10043000E16888472028054607DB312D05D2781969
:1004400010F8200C08B10643F1E7B00701D526F0FB
:100450000406C4F81CA00027C4F818A02A2D09D04F
:10046000284604F0D0FB38B304EB8708303DC8F8C9
:10047000185019E059F8041B204604EB87029161DB
:10048000E1688847012F054618D1E069002820DA85
:1004900026F020061DE0D8F8180000EB800005EBE0
:1004A00040003038C8F818002046E1688847054603
:1004B00004F0A9FB0028EED1012F0AD02E2D08D17F
:1004C0002046E16888477F1C0546022F46F020063B
:1004D000C4DBA069002803DA404246F00106A061AF
:1004E000F00701D026F010066C2D0BD0682D09D036
:1004F0004C2D39D06A2D35D0742D35D07A2D33D08E
:1005000016E038E0E1682F4620468847B8420546A5
:1005100009D16C2F26D04FF48060E1680643204655
:100520008847054604E06C2F1AD04FF480700643CC
:100530000DB3A5F14100192802D8203546F4006614
:100540004A462946204626604E46FFF72BFE80B1DC
:1005500001280BD0F61D26F0070000F1080956E728
:100560004020E4E78020D8E70020D6E706F1040920
:100570004DE7284652E7206ABDE8F09F0878000062
:100580000446AFF300802046FFF773FE10B5431C0E
:1005900002E010F8011B71B18107FAD14FF001326E
:1005A00002C88C1A8C4314EAC211F9D0C01A0A0688
:1005B00003D0C01E10BDC01A10BD0A0401D0801E99
:1005C00010BD0902FCD0401E10BD4FF000020429EE
:1005D000C0F0128010F0030C00F01B80CCF1040C72
:1005E000BCF1020F18BF00F8012BA8BF20F8022BA6
:1005F000A1EB0C0100F00DB85FEAC17C24BF00F84C
:10060000012B00F8012B48BF00F8012B70474FF079
:10061000000200B5134694469646203922BFA0E852
:100620000C50A0E80C50B1F12001BFF4F7AF09075E
:1006300028BFA0E80C5048BF0CC05DF804EB89004F
:1006400028BF40F8042B08BF704748BF20F8022B92
:1006500011F0804F18BF00F8012B704770477047AA
:10066000704700000048704720070020704770471F
:100670007047704738B504460A4600206946AFF314
:100680000080002808BF38BD02460099204600F0CF
:1006900079FA012038BD012000F0AABEF8B5AFF309
:1006A0000080054600200C46102000BF0646A81911
:1006B000A0420DD9324669460020AFF30080070002
:1006C00008BF00F095FE0098A04218BF0546C41967
:1006D000FFF7C8FF05600746F01D20F00700461928
:1006E000284600F00AF8B44208BFF8BDA21B314604
:1006F0003868BDE8F84000F045BA00210160C0E963
:10070000011070471020704770B50446051FFFF7B1
:10071000A9FF0068002C14BF446870BD002C18BFEE
:10072000AC423CBF20466468F8D301680A18AA426C
:1007300018BF456003D12A68054611440160286846
:100740004119A1421CBF6C6070BD6168696021687D
:100750000844286070BD70B5044685690068C1060C
:1007600001D5302600E02026C00707D070BDD4E9AF
:10077000012130469047206A401C20626D1EF6D54C
:1007800070BD70B5044685690078C00707D170BD9B
:10079000D4E9012120209047206A401C20626D1E70
:1007A000F6D570BD09684A0501D540B27047C90544
:1007B000FCD500B2704709684A0501D5C0B2704740
:1007C000C905FCD580B2704770B50C460546012AB4
:1007D00005D02878800600D5EA69002302E00123CD
:1007E00005E05B1C934202D2E05C0028F9D1A869C5
:1007F000E618C01AA861286A184428622846FFF73C
:10080000AAFF04E0D5E9012114F8010B9047B44296
:10081000F8D32846FFF7B5FF70BD2DE9F0470D4628
:1008200099469246044600F124080168880604D5DA
:10083000E06921F01001216000E00120A84201DD03
:10084000471B00E00027A1697A1902EB0900081A8A
:10085000A0612078C00602D42046FFF77CFF002666
:1008600008E0D4E901211AF806009047206A401CEC
:10087000761C20624E45F4DB2078C0060AD520465F
:10088000FFF769FF06E0D4E9012130209047206A94
:10089000401C2062381EA7F10107F4DC07E0D4E910
:1008A000012118F805009047206A401C2062281E8C
:1008B000A5F10105F3DC2046FFF763FF2078000671
:1008C00002D50220BDE8F0870120FBE7116802682D
:1008D000006A530501D508700AE0D30501D50880E8
:1008E00006E0130603D5C217C1E9000200E0086064
:1008F0000120704701694A1C02610878704700B501
:100900008FB0CDE901310021059105497944CDE948
:10091000031011466846FFF76FFD0FB000BD0000E1
:10092000E5FFFFFF0A6802F8010B0A607047D1E992
:1009300000239A4202D2531C0B60107070470000D3
:100940002DE9FF5F15468A460446DFF8AC80F8447F
:100950000027D8E900103E46CDE9001010E03AF833
:1009600016106A4602A800F023FD411C07D021782A
:10097000890603D5E269391891420DD80744761CDF
:100980002078800602D5E069B84205DDAE42E6DB9C
:100990003AF816000028E2D1A069C01BA0612046E9
:1009A000FFF7D9FED8E90010CDE90010002017E0CC
:1009B0003AF818106A4602A800F0FAFCB0F1FF3FBE
:1009C00081460BD000250DF1080B05E0D4E901218B
:1009D0001BF8050090476D1C4D45F7D308F1010049
:1009E000B0428046E4DB206A384420622046FFF7AC
:1009F000C8FEBDE8FF9F0000D67200002DE9F0415F
:100A00008046D21D22F007020025D2E90002F52916
:100A100015A614D0011E72F1000106DA0023D0EBF6
:100A2000030063EB020211A608E0D8F800108B0760
:100A300001D50FA602E0490701D50EA601251146F2
:100A4000002408F1240704E000F0B6F830323A55EB
:100A5000641C50EA0102F7D12B463246214640463B
:100A6000BDE8F041FFF7D9BE000000002D000000F6
:100A70002B0000002000000030B4002100F124040D
:100A800008E002F00705D208303542EA4372DB087D
:100A90006554491C52EA0305F3D10468002310A2EF
:100AA000250708D504F020040C4304D0C4690123B1
:100AB0000CA2641EC46130BCFFF7AFBE10B5044683
:100AC00021461068FFF777FE02462046BDE8104039
:100AD0000023D1E7D21D22F00701D1E90023CBE7A3
:100AE0000000000030000000F0B40D460188090548
:100AF00002D5214C7C4402E01F4C7C440E34002182
:100B000000F1240608E002F00F071209E75D42EA4F
:100B100003721B097754491C52EA0307F3D1027888
:100B20000023120704D5702D06D009B10223113419
:100B30002246F0BCFFF771BE01231034F8E770B510
:100B400004460D4621461068FFF735FE0246294649
:100B50002046BDE870400023C6E7D21D22F00703FF
:100B6000D3E90023C0E70368126843F02003036061
:100B70000823C3610023B7E73871000000487047BD
:100B800018070020034640688C46002818BF88429A
:100B90003CBF03464068F8D318681844884207D021
:100BA0000CF1030020F00700001D411A521A014603
:100BB000081D0A60FFF7A8BD30B5B0F10A024FEA80
:100BC000900E71F100034EEA817EB0EB0E0061EBF6
:100BD00091014FEA101E4EEA017E10EB0E0041EB30
:100BE00011114FEA102E4EEA016E10EB0E0041EB90
:100BF00011214FEA104E4EEA014E10EB0E0041EB70
:100C00001141401841F100014FEAD00040EA417023
:100C10004FEAD10110EB80054FEA810444EA907459
:100C200044EB01046D1944EB0404521BA3414FF043
:100C3000000348BF0A3200D530BD401C41F100011D
:100C400030BD70472DE9FF4F0C461E464FF0FF3771
:100C50008BB0D2E90001DDF860800A908A46C1F3CA
:100C60000A5505B93D46002108464FF00000BAF18B
:100C7000000F00F4400005DA00EB80004FF4400163
:100C800001EA50004FEA9059B9F1010F00DDB94671
:100C90000A9850EA4A000ED044F61050A5F2FF35EB
:100CA00045432F14B8F1000F1ED07542291E1EDDDA
:100CB000C9F100021CE0B8F1010F4FF0000001D0B3
:100CC000302103E0F24305E02154401CB042FBDB3D
:100CD00030460022002121540B99C1F80880C1E957
:100CE00000200FB0BDE8F08FBD1B6D1CDEE74A464B
:100CF00000DA694206A800F0FBFB06AB93E80700A8
:100D000003AB83E8070050460A9900F0EEFC8DE83B
:100D10000700A0F500501F3800900398002D09DD52
:100D200042F21F014A46084403A90390684600F0B6
:100D30004DFF08E0A0F500504A461F3803A9039074
:100D4000684600F057FF8DE807000004000C03D050
:100D50004FF0FF30410800E01046B8F1000F03D01B
:100D60000022009215461EE0751E05D4FFF724FFF1
:100D7000303262556D1EF9D5B3460122084302D0C8
:100D800000227F1C04E02078302801D100227F1E41
:100D9000002A099786D01DE0112D07DAFFF70CFF16
:100DA000303262556D1C50EA0102F5D1084302D081
:100DB0000098C8B10EE00021681E05E0235C625C6B
:100DC00063542254401E491C8142F7DBAB46A81BEA
:100DD000401E0990002004F80B000B98099AC0F8F7
:100DE0000880C0E9002B7CE711264FF0000859E786
:100DF0002DE9F04F88460446D21D22F0070191B03C
:100E0000D1E90001CDE90A0103F0D9FE02460B98B1
:100E1000C00F01D02D2007E02068810701D52B20CD
:100E200002E0202101EAC000032A099001D0072A2C
:100E300005DB03464146204600F01AFB0BE1207813
:100E4000800601D5E06900E00620B8F1650F814613
:100E500006D0B8F1660F18D0B8F1670F70D131E045
:100E60000020B9F1110F009001DB112301E009F11D
:100E700001030AAA01A90CA8FFF7E4FEDDE90C7042
:100E8000002609F10105834647E001204B4600900A
:100E90004FF000470AAA01A90CA8FFF7D3FEDDE92D
:100EA0000DB00C995D46002610B909F101000D182E
:100EB000B9EB050003D4C0F1FF3609F10105A5EB3C
:100EC00009002BE0B9F1010F01DA4FF00109002010
:100ED000B9F1110F0090484601DD112300E00346EF
:100EE0000AAA01A90CA8FFF7ADFEDDE90C704D467A
:100EF00000268346207800070AD4AB4500DA5D4619
:100F000001A8012D04DD411911F8011C302907D079
:100F10004F4502DA17F1040F04DA012082460FE090
:100F20006D1EEEE7002F02DCED1B3E4403E0781C53
:100F3000A84200DD7D1CB81B00F1010A4FF00047FC
:100F40002078000703D4AA4501DB4FF0FF3A0021C7
:100F5000B7F1004F0DF143088DF8431024D0022063
:100F60002B23002F01DA7F422D230A21021EA0F13C
:100F7000010000DC5FB197FBF1FC97FBF1F201FB94
:100F80001C7C17460CF1300C08F801CDEEE7A8F1F7
:100F9000010003702188090501D5452100E0652184
:100FA000A0F1010800F8011C09980FA9A1EB08079E
:100FB000FF1D00B10120411901EBEA70A16938441D
:100FC000081A401EA0612078C00602D42046FFF710
:100FD000C2FB099828B1D4E901219047206A401C3E
:100FE00020622078C00622D52046FFF7B4FB1EE021
:100FF000002E04DBB34502DD01A8805D00E0302057
:10100000D4E901219047206A401C2062761CAAF195
:1010100001005FEA000A0AD100F026FAC068016800
:10102000405CD4E901219047206A401C2062281EC0
:10103000A5F10105DCDC07E0D4E9012118F8010B7A
:101040009047206A401C2062381EA7F10107F3DC9C
:101050002046FFF796FB032011B043E62DE9F04F41
:1010600004460D46D21D22F0070089B0D0E9009257
:1010700048461746394603F0A2FD0246F80F01D054
:101080002D2307E02068810701D52B2302E02021D2
:1010900001EAC0038DF820300BB1012000E00020F0
:1010A000032A824601D0072A04DB2946204600F0A5
:1010B000DFF93DE12078800601D40D2500E0E569E7
:1010C000C7F30A560D2D49DA00214FEA175B08468F
:1010D0004FF00000002F00F4400007DA00EB800022
:1010E0004FF4400100EBD07001EA60008115012946
:1010F00001DD4FF0FF3100224FEA850CBCF1180FE3
:1011000006D31346ACF118004FF08052C24003E002
:101110004FF4801323FA0CF30CF10C0CBCF1200FEC
:1011200004D3ACF1200C09FA0CF001E007FA0CF042
:1011300000294FF0004801DD18B90FE00ED14045FD
:101140000CD319EB02095F4121B9404502D19F43FD
:1011500029EA0209BBEB175F00D0761C2088000546
:1011600002D57B48784402E079487844193808AAC7
:10117000302302F80A30037C0AF10101002E0AF143
:10118000020A53546A4602DC4FF0300101E04FF08E
:1011900031014FF001088DF8001002D0A6F2FF36A1
:1011A00003E059EA470100D06A4E002D02DC2178A5
:1011B000090704D54FF002082E218DF80110C4460E
:1011C00000210BE0C7F303433F01C35C491C6D1EC4
:1011D00002F80830052908F1010801DA002DF1DCD8
:1011E00000210CE000EB1973491C1B786D1E0829C7
:1011F00002F808304FEA091908F1010801DA002D58
:10120000F0DC2178890602D514E0A8F10108E04558
:1012100005DD02EB080111F8011C3029F5D0B8F109
:10122000000F07DD02EB080111F8011C2E2901D186
:10123000A8F10108002D05DD3E2102F808106D1E01
:1012400008F10108407C002E02F8080008F10108AE
:1012500004DA2D20764202F8080002E02B2002F882
:1012600008000A214FF47A70864208F101080BDB6E
:1012700096FBF0F3303302F8083096FBF0F308F1F8
:10128000010800FB136601E0642E0CDB642096FB72
:10129000F0F3303302F8083096FBF0F308F1010860
:1012A00000FB136601E00A2E06DB96FBF1F03030FE
:1012B00002F8080008F1010896FBF1F001FB10604C
:1012C000303002F80800A16908F1010808EB0502B6
:1012D00002EB0A00081AA0612078C00602D420465A
:1012E000FFF739FA216A08AE01EB0A00206204E038
:1012F000D4E9012116F8010B9047BAF1010AF7D29F
:101300002078C00602D52046FFF725FA6E4609E090
:1013100016F8010B3E280FD0D4E901219047206A2E
:10132000401C2062B8F10108F2D22046FFF729FAEA
:1013300009B00320BDE8F08F206A2844206203E052
:10134000D4E90121302090476D1EEBD3F8E700006F
:10135000036B000002FCFFFF10B5436913B1AFF34C
:10136000008001E0FFF730FA012010BD127800F193
:1013700024010A7000224A700122EDE711684FF043
:10138000FF32E9E710B5436913B1AFF3008001E024
:10139000FFF7D6FA012010BD128800F124018284E3
:1013A0000022C2840122EDE711684FF0FF32E9E725
:1013B00070B516460C46054600F04EF8036893F8E3
:1013C0000101012806D0FF2C0FD8185D68B101205B
:1013D0002C7070BDD3F807013246214603F2071383
:1013E00003442846BDE8704018474FF0FF3070BDF9
:1013F00010B500F0F1F8BDE8104000F0E7B80000CB
:1014000001491820ABBEFEE7260002007047754672
:10141000FFF7B4FBAE4605006946534620F00700CF
:10142000854618B020B5FEF739FFBDE820404FF0E3
:1014300000064FF000074FF000084FF0000B21F0BE
:101440000701AC46ACE8C009ACE8C009ACE8C0098B
:10145000ACE8C0098D46704710B500F005F8001DD6
:1014600010BD00BF595000000048704738070020E9
:101470002DE9F0411F46044603260168072A01F4BE
:10148000006004DB08B116A505E016A503E008B16D
:1014900015A500E015A521F010002060A069C01E70
:1014A000A0610FB1401EA0612046FFF754F94FB173
:1014B000D4E9012138469047206A401C2062C01CB4
:1014C000206206E0206AFAE7D4E9012115F8010B51
:1014D0009047761EF8D22046FFF753F9BDE8F08119
:1014E0004E414E006E616E00494E4600696E6600C8
:1014F0002DE9F047814616468AB0334878440DC836
:101500008DE80D0030487844801C03AC0DC884E899
:101510000D0041F69B300844372190FBF1F290FB1F
:10152000F1F5A5F1800501FB12041B3C02D56442D4
:10153000012000E00020DFF890A080460027FA4458
:10154000AAF1BE0A0DE0E00709D03246684607EB73
:1015500047010AEB810100F04DFB8DE807006410A4
:101560007F1C002CEFD1184F7F44AC3F18E0E807F8
:1015700014D007EB04100DF1180A90E80E008AE869
:101580000E00C068F04201D198190890324606A9B1
:1015900003A800F02FFB03AB83E807006D10641C69
:1015A000002DE4D132466946B8F1000F03A802D0FD
:1015B00000F00CFB01E000F01DFBC9E90001C9F8D7
:1015C00008200AB0BDE8F087FC670000002801D0C1
:1015D000FFF716BF7047000010B5012805D00021A5
:1015E00003A000F021F8012010BD09A1F8E70000D8
:1015F00053494752544D454D3A204F7574206F66FC
:101600002068656170206D656D6F72790000000063
:101610003A2048656170206D656D6F727920636F47
:10162000727275707465640070B505460C460A20C8
:1016300000E06D1C00F052F835B128780028F8D190
:1016400002E0641C00F04AF814B120780028F8D1B8
:10165000BDE870400A2000F041B800004FF0013CA6
:1016600050F8042B51F8043B9A4221D1A2EB0C0311
:10167000934313EACC1317D150F8042B51F8043BD1
:101680009A4215D1A2EB0C03934313EACC130BD16E
:1016900050F8042B51F8043B9A4209D1A2EB0C03F9
:1016A000934313EACC13DBD04FF00000704700BF28
:1016B000D01A01BAB1FA81F101F0180122FA01F051
:1016C000CB40C1F12001DBB2C0B2C01A2CFA01F349
:1016D000D11A914311EAC311E6D1704708B56946A2
:1016E0008DF800000320ABBE08BD5FEA400C08BFC8
:1016F00091F0000F4FEA8C234FEAC12243EA515187
:101700004FEA1C5018BF00F5F0404FEA300018BFF8
:1017100041F000415FEA6C5C00F02980BCF1FF3FC2
:1017200008BF40F080407047130C06BF12044FF012
:10173000100C4FF0000C130E04BF12020CF1080C39
:10174000130F04BF12010CF1040C930F04BF92009D
:101750000CF1020CD30F04BF52000CF1010C114626
:101760004FF00002A0F11F00A0EB0C00704711F039
:10177000004F08BF704731F000413FF4D5AF0B0C6C
:1017800006BF09044FF0100C4FF0000C0B0E04BF05
:1017900009020CF1080C0B0F04BF09010CF1040C39
:1017A0008B0F04BF89000CF1020CCB0F04BF490062
:1017B0000CF1010CCCF12003A0EB0C0022FA03F396
:1017C00002FA0CF241EA030100F10100704720F037
:1017D0007F4C80EA030023F07F47ACEB070303F55F
:1017E0007C5300F0004003F1FF032DE980494FEAEC
:1017F000154B09B44FEA144325EA0B4E24EA03487B
:101800000FF2042606EB132749083E785FEA3202FE
:1018100003FB0667C7F5000707FB06F64FEA5437D8
:101820004FEAD64606F1020607FB066CCCF1005CD7
:101830004FEA1C472CEA074C07FB06F40CFB06F5A5
:1018400004EB15464FEA961634BF00204FF00040D7
:101850004FEAD13706FB07FC4FEA1C4C0CFB0BF799
:10186000D21B03FB0CF761EB07010CFB0EF7B0EB8F
:10187000074072EB17420CFB08F734BFA2EB07429C
:10188000B2EB074261EB17414FEA0C444FEA910774
:1018900006FB07FC4FEA1C4C0CFB0BF7B0EBC740F8
:1018A00072EB573203FB0CF734BFA2EBC742B2EB2B
:1018B000C74261EB57310CFB0EF7B0EBC70072EB80
:1018C00057720CFB08F734BFA2EBC702B2EBC7029A
:1018D00061EB5771039F4FEA816141EA921104EB7A
:1018E000CC044FEAD1374FEA826206FB07FC42EA9A
:1018F00090124FEA80604FEA1C4C0CFB0BF7D21B96
:1019000003FB0CF761EB07010CFB0EF7B0EB074094
:1019100072EB17420CFB08F734BFA2EB0742B2EBA5
:10192000074261EB17414FEA8C554FEA910704EBF0
:101930009C2406FB07FC4FEA1C4C0CFB0BF7B0EB9E
:10194000C74072EB573203FB0CF734BFA2EBC74220
:10195000B2EBC74261EB57310CFB0EF7B0EBC7009F
:1019600072EB57720CFB08F734BFA2EBC702B2EB65
:10197000C70261EB577115EB4C254FEA816141EAD3
:1019800092114FEA82624FEAD13742EA901206FB87
:1019900007FC44F100044FEA80604FEA1C4C0CFB4A
:1019A0000BF7D21B03FB0CF761EB07010CFB0EF7E7
:1019B000B0EB074072EB17420CFB08F734BFA2EB09
:1019C0000742B2EB074261EB174115EB1C154FEADA
:1019D000813141EA92414FEA823242EA90424FEA33
:1019E00080304FEA0C7644F1000448EA03434EEAA3
:1019F0000B484FF0000EB2EB080C71EB030724BF4D
:101A0000624639464EEB0E0E4FF0000B0018524165
:101A100049414BEB0B0BB2EB080C71EB03077BF16D
:101A2000000B24BF624639464EEB0E0E4FF0000B02
:101A30000018524149414BEB0B0BB2EB080C71EB18
:101A400003077BF1000B24BF624639464EEB0E0EB6
:101A500051EA020718BF46F0010616EB0E7655F163
:101A6000000254F1000103D5BDE88901BDE80088FA
:101A7000BDE88901BDE80048B619524141EB0101BA
:101A8000A3F10103704780807F7E7D7C7B7A79782B
:101A9000777676757473727171706F6E6E6D6C6C33
:101AA0006B6A6A69686867666665646463636261D5
:101AB0006160605F5F5E5E5D5D5C5C5B5B5A5A5956
:101AC00059585857575656555555545453535252C2
:101AD0005251515050504F4F4F4E4E4D4D4D4C4C1A
:101AE0004C4B4B4B4A4A4A49494948484847474763
:101AF00047464646454545444444444343434342A0
:101B0000424242414141002B26D4770021D01CB5EE
:101B10004FEA370703B44FF010004FF010014FF0B9
:101B200000000FBCBDE810400BF1010BBBF1010F31
:101B300008BF5FEA170722BF12F1010211F101018C
:101B40004FF0004143F1000300F0004043EA000081
:101B50007047F9D35708DAE746EA064613F1400F13
:101B60004FEA16461FDD13F1200FDFBF16430A466A
:101B7000002120335B42C8D0C3F1200746EA064665
:101B800002FA07F74FEA164646EA0706C3F12007AE
:101B900022FA03F201FA07F721FA03F14FF00003EA
:101BA00042EA0702B1E746EA020646EA06464FEA7B
:101BB000164646EA0106BCBF46EA0646360C4FF01A
:101BC00000034FF000024FF000019EE72DE9C048EE
:101BD000934630B491E8380007C831EA400C48BF5A
:101BE00034EA430C03D5FFF7F2FDFFF78CFFF0BC9E
:101BF000BDE800882DE9C048934630B491E838002C
:101C000007C810F0804F08BF13F0804F03D100F0D9
:101C100005F8FFF778FFF0BCBDE8008820F07F47AB
:101C200080EA030023F07F4C07EB0C03A3F57C5301
:101C300000F00040A3F1FE0392F0000F00F0B3802B
:101C400095F0000F00F077802DE901494FEA11402F
:101C50004FEA144621EA004800FB06FC24EA064746
:101C600008FB06F607FB08F800FB07F718EB064829
:101C70004CEB164C4FEA124B18EB07484FEA15464F
:101C80004CEB174022EA0B4E0BFB06FC25EA0647FD
:101C90000EFB06F607FB0EFE0BFB07F71EEB064ED0
:101CA0004CEB164C4FF000061EEB074E4CEB174B5F
:101CB00018EB0B0840F1000018EB0E0B58EB000876
:101CC00040F100008F1A4FF000013CBFC943661B72
:101CD00014BFB5EB040C00213CBFC943F61B4FEA0F
:101CE00017444EEA8E0E27EA04454FEA1C4704FBD0
:101CF00007622CEA074C05FB07F70CFB05F604FB13
:101D00000CFC16EB074642EB174216EB0C4642EB77
:101D10001C421BEB060658EB0202414146EA9E06B6
:101D200001D5BDE80189B619524141EB0101A3F18A
:101D30000103BDE801894FEA14454FEA114724EA3F
:101D4000054621EA074C05FB07F406FB07F70CFBE9
:101D500006F105FB0CFC11EB074144EB17444FEA7D
:101D6000124711EB0C4144EB1C4422EA074C05FBE3
:101D700007F206FB07F70CFB06F605FB0CFC16EB5F
:101D8000074642EB174216EB0C4642EB1C456A181D
:101D900054F1000148BF7047B619524141EB0101AF
:101DA000A3F10103704795F0000F37D04FEA1142BD
:101DB0004FEA144721EA024624EA074C02FB07F1E6
:101DC00006FB07F70CFB06F402FB0CFC14EB0744C4
:101DD00041EB17414FEA154714EB0C4441EB1C4112
:101DE00025EA074C02FB07F506FB07F70CFB06F696
:101DF00002FB0CFC16EB074645EB174516EB0C46B1
:101E000045EB1C42121951F1000148BF7047B61949
:101E1000524141EB0101A3F1010370474FEA144520
:101E20004FEA114724EA054621EA074C05FB07F172
:101E300006FB07F70CFB06F24FF0000605FB0CFC57
:101E400012EB074241EB174112EB0C4251EB1C41E4
:101E500048BF7047921841EB0101A3F1010370479D
:101E6000FEE7000030B585B00020009001900290A0
:101E700003901148816941F4807181618069012278
:101E800000F480700D4DD40204902146284600F0E5
:101E900026FC01210320CDE90210CDE9004169466D
:101EA000284600F01BFB05B021462846BDE830401F
:101EB000012200F014BC000000100240002001408C
:101EC0001FB54FF4006000900120019003200390A3
:101ED0006946024800F002FB1FBD000000200140DF
:101EE0002DE9F0410025174E2C464FF400674FF0C6
:101EF00001083946304600F0EDFB0028F9D02820D3
:101F000000F0D4FA3946304600F0E4FB01280BD04B
:101F1000C4F1070108FA01F08543641CE4B2082CFF
:101F2000E7D32846BDE8F0813946304600F0D2FBC1
:101F30000128F9D0C4F1070108FA01F0C0B2054345
:101F4000EBE70000002001407FB50446FFF7B8FF33
:101F5000294E4FF4006500222946304600F0BFFBB1
:101F60004FF47A7000F0A2FA01222946304600F0C0
:101F7000B6FB1E2000F09AFA002001900290039018
:101F800069460095304600F0A9FA2946304600F02F
:101F9000A1FB70BB2946304600F09CFB0028F9D01D
:101FA0002946304600F096FB0128F9D0FFF798FF4C
:101FB0002070FFF795FF6070FFF792FFA070FFF7AA
:101FC0008FFFE070FFF78CFF2071FFF779FF012290
:101FD0002946304600F083FB20786178E278084497
:101FE000A178114408442179884203D1002004B02B
:101FF00070BDFFE70120FAE700200140014800F032
:10200000E1B80000440100207047000001B503481A
:102010000099016001680029FCD108BD1000002072
:1020200072B6FEE73EB50020019020208DF8080032
:102030004FF6FF74012302AA46211248009400F0D3
:102040005FFE50B9782000F01FFA01AA0223462152
:102050000C48009400F032FD08B100203EBD9DF810
:10206000040004EA00219DF80500084304F0C3FBC6
:102070004FF03332044B04F037FA04F08DFB80B29A
:102080003EBD0000240600203333F33F2DE9F05F0E
:1020900090F821100024022903D004218163012437
:1020A00085E001680A6822F00E020A6001680A6889
:1020B00022F001020A603F4E3E4FB215DFF8F4C035
:1020C000DFF8F090DFF8ECA0DFF8E8B0DFF8E4E04C
:1020D0000168783F13011502ACF1640CA9F15009B5
:1020E000AAF13C0AABF1280BAEF1140E4FF48018A4
:1020F000B14227D9B9420ED0614512D049451DD011
:10210000514518D0594518D0714501D1424615E0C6
:10211000294EB14201D1012210E0274E1436B142BE
:1021200001D110220AE0244E2836B14206D0224ABC
:102130003C32914201D11A4600E02A461E49091F4D
:102140000A602BE0B94213D0614517D0494522D02F
:1021500051451DD059451DD0714501D142461AE067
:10216000B14202D14FF0807215E0134EB14201D15D
:10217000012210E0104E1436B14201D110220AE0C3
:102180000D4E2836B14206D00B4A3C32914201D165
:102190001A4600E02A46074980394A60012180F842
:1021A0002110002180F82010416B01B188472046A2
:1021B000BDE8F09F800002400804024090F8210032
:1021C000704700002DE9F05FC16B0A6801680B6879
:1021D000046C4FF0040808FA04F8844D844E854FCF
:1021E000DFF814C2DFF81492DFF814A2DFF814B29B
:1021F000DFF814E218EA020F65D05FEA437862D58F
:102200000A68920603D40A6822F004020A60DFF822
:10221000F0814FF48062016808F114081301140280
:10222000414524D9A9420DD0B1420FD0B9421AD0AC
:10223000614515D0494515D0514501D1120312E031
:10224000594501D104220EE0714501D140220AE036
:102250006D4D1435A94206D06B4A2832914201D106
:102260001A4600E022466749091F0A6029E0A94290
:1022700013D0B14215D0B94220D061451BD0494599
:102280001BD0514502D14FF4800217E0414502D1E5
:102290004FF0806212E0594501D104220EE07145F1
:1022A00001D140220AE0584D1435A94206D0564AC1
:1022B0002832914201D11A4600E022464B490839A2
:1022C0004A60C16A71E04FF0020808FA04F818EA9F
:1022D000020F70D05FEA83786DD50A68920606D443
:1022E0000A6822F00A020A60012180F82110DFF852
:1022F00010814FF40072016808F1140813011402F0
:10230000414524D9A9420DD0B1420FD0B9421AD0CB
:10231000614515D0494515D0514501D1120312E050
:10232000594501D102220EE0714501D120220AE077
:10233000354D1435A94206D0334A2832914201D195
:102340001A4600E022462F49091F0A6029E0A942E7
:1023500013D0B14215D0B94220D061451BD04945B8
:102360001BD0514502D14FF4001217E0414502D174
:102370004FF0007212E0594501D102220EE0714582
:1023800001D120220AE0204D1435A94206D01E4A70
:102390002832914201D11A4600E0224613490839F9
:1023A0004A60002180F82010816A00291CD0BDE815
:1023B000F05F0847FFE70825A540154214D01A072B
:1023C00012D50A6822F00E020A6090F84020C36B12
:1023D000012101FA02F25A60816380F82110002184
:1023E00080F82010016BE0E7BDE8F09F0800024094
:1023F0001C000240300002404400024058000240ED
:102400006C000240080402401C04024030B560B178
:102410001A4B026814219A4209D2194B1344B3FB98
:10242000F1F18900016417490AE0012030BD134B26
:102430005B421344B3FBF1F1890001640F49083991
:10244000C163022180F82110136843F6F0718B43B9
:10245000F0E901142143D0E902452C4321430469EA
:1024600021434469214384692143194311600021B8
:102470004163012242770177084630BD08040240DB
:10248000F8FFFDBF0000024070B5044600F02CF9D3
:102490000546601C02D004480078044400F024F98A
:1024A000401BA042FAD370BD0000002010B50446C6
:1024B00000F0D6FE0849B0FBF1F001F0BDF8601E57
:1024C000FFF7E2FF00F0CCFE4FF47A71B0FBF1F0C1
:1024D000BDE8104001F0B0B840420F002DE9F84FC0
:1024E000DFF8C891002409F1040A0AF1040B23461D
:1024F0000F270BF1040ED1E00125A54006EA0502E5
:10250000AA4276D1DFF8A8C14E68A6EB0C08664552
:102510002BD00DDC032E34D005DC36B3012E19D0C0
:10252000022E2FD11BE0112E16D0122E2AD119E027
:10253000B8F5881F19D006DCB8F5803F15D0B8F57E
:10254000801F1FD111E0B8F5001F0ED0B8F5041F91
:1025500018D10AE0CB6815E0CB681B1D12E0CB68F0
:1025600008330FE0CB680C330CE08B682BB1012BE8
:102570004FF0080303D0456104E0042302E0056145
:1025800000E00023FF2A01D8064601E000F104061E
:102590004FEA840501D9A5F12005D6F8008007FA95
:1025A00005FC28EA0C0803FA05F548EA0508C6F810
:1025B00000804D68ED0070D53E4DAE6946F00106D5
:1025C000AE61AD6924F0030605F0010500953A4DB2
:1025D00006EB050CDCF80850A607360F07FA06F8DC
:1025E00025EA0805DFF8D480404503D14FF0000804
:1025F00025E052E0DFF8C880404502D14FF00108E5
:102600001DE0DFF8C080404502D14FF0020816E01F
:10261000DFF8B480404502D14FF003080FE0DFF847
:10262000AC80404502D14FF0040808E0DFF8A080FC
:10263000404502D14FF0050801E04FF0060808FAC6
:1026400006F848EA0508CCF808804D68D9F800601B
:10265000ED034D4601D5164300E096432E604D68CC
:10266000DAF80060AD03554601D5164300E0964305
:102670002E604D68DBF80060ED025D4601D5164323
:1026800000E096432E604D68DEF80060AD027546AE
:1026900001D5164300E096432E60641C0A68164676
:1026A000E2407FF429AFBDE8F88F0000000401404C
:1026B000000011100010024000000140000801401D
:1026C000000C0140001001400014014000180140BE
:1026D000001C01408068084000D0012070470AB10A
:1026E000016170470904FBE70148806870470000FA
:1026F00000000020704770472DE9F0470268002174
:102700005368C66A90F83E4090F83D50102C12D0A5
:10271000402C10D0046C002C7DD05469E443A607F3
:102720007AD4DE43B60577D4036C03B19169BDE872
:10273000F04701F0D5BD976951694FF42A0CC943A0
:102740005FEAC1784FF02A4904D066452AD04E4549
:1027500028D010E0DE43B6050DD4C16A614501D131
:10276000012103E0C16A494501D10821C162BDE8E8
:10277000F04701F0CBBC0E0716D4DE43B60513D4E8
:10278000416CC9B21161416B09B1896A29B9816B88
:10279000002907D0896A002904D00068416841F403
:1027A00000614160BDE8F0878E0706D4DE43B605C0
:1027B00003D4BDE8F04701F0FDBBFE435268760745
:1027C0004FEA02521DD4002AECDB0A0608D4DA4391
:1027D000520505D4490705D5BDE8F04701F08EBB89
:1027E0004907DFD4D9438905DCD4212D05D0402CFD
:1027F000D8D1BDE8F04701F0CFBCBDE8F04701F00B
:102800003BBB002ACEDB4A060BD4DA43520508D480
:10281000490708D501E00DE00EE0BDE8F04701F002
:10282000F3B94907BED4D9438905BBD4BDE8F04705
:1028300001F081B9916970E7E10606D4D9438905B1
:1028400003D4BDE8F04701F06FBD2821212D27D02A
:10285000292D25D0650655D4DD436D0552D4640776
:1028600052D590F83D30448D002C9BD01269446ABB
:102870002270426A521C4262428D521E4285428D33
:10288000002A8FD12A2B8DD10268536823F48063EC
:1028900053602222026380F83D1000F0B1FB81E713
:1028A000250623D4DD436D0520D4640720D590F898
:1028B0003D30448D002CF2D0446A24781461426A81
:1028C000521C4262428D521E4285428D002AE6D140
:1028D000292BE4D10268536823F4806353602122DA
:1028E000026380F83D1000F08CFB5BE76107D6D4F3
:1028F000D9438905D3D4418D0029D0D0416A0978C4
:1029000011610AE06107CAD4D9438905C7D4418D52
:102910000029C4D01169426A1170416A491C4162A0
:10292000418D491E41853DE77047000070B50400A8
:1029300025D094F83D00002520B984F83C5020466D
:1029400000F00EFB242084F83D002068016821F08F
:10295000010101602068016841F4004101602068C4
:10296000016821F40041016000F080FC4D4A61687B
:10297000914201D84C4900E04C49884201D20120E3
:1029800070BD4B492368B0FBF1F15E6826F03F064D
:102990000E435E606368934206D94FF496735943C1
:1029A0004FF47A73B1FBF3F12368491C1E6A26F0D9
:1029B0003F06314319626168914210D84900401EB8
:1029C000B0FBF1F2521CC2F30B02042A01D2042024
:1029D00022E0B0FBF1F0401CC0F30B001CE0A26849
:1029E000F2B301EBC10303EB0116431EB3FBF6F395
:1029F0005B1C43F480431B0549D092B301EBC10239
:102A000002EB0111401EB0FBF1F0401CC0F30B00C3
:102A100040F4804040F400402168CA694CF6FF73DE
:102A20009A431043C861D4E9071001432068026843
:102A300022F0C00211430160D4E903010143206880
:102A4000826848F2FF339A4311438160D4E905015B
:102A500008432168CA6822F0FF021043C86001E001
:102A60000EE016E02068016841F001010160256474
:102A7000202084F83D00256384F83E50002070BD7E
:102A800001EB4106431EB3FBF6F35B1CB3E70120E9
:102A9000C2E701EB4101401EB0FBF1F0401CC0F366
:102AA0000B00B7E7A086010080841E0000093D00EE
:102AB00040420F0070477047704700002DE9F84F03
:102AC0000025DDF82890984617468A46044600956A
:102AD000FFF70AFE064694F83D0020287AD1192314
:102AE000012283492046009601F0F2FC0028F5D12E
:102AF00094F83C0001286DD0012084F83C00206847
:102B00000168C90703D1016841F001010160206833
:102B1000016821F400610160222084F83D0010204A
:102B200084F83E0025646762A4F82A80608D2085C1
:102B30007048E06233464A465146204601F0D8F8D4
:102B400000287DD1208DDFF8B081202768B10128D1
:102B500014D00228206801681ED041F48061016011
:102B60002068416980690090B5E020684169816909
:102B70000091016841F400710160ACE020680168D7
:102B800021F48061016072B6206841698169009119
:102B9000016841F400710AE041F40061016072B61D
:102BA0002068416981690091016821F480610160B8
:102BB00062B690E0032868D801280CD002284B4662
:102BC0004FF000024146204600960FD001F080FCF5
:102BD000B0BB10E08AE032464946204601F0F7FCDF
:102BE00070BB20680069616A08706BE001F070FCDE
:102BF00030BB72B634E02068016821F48061016066
:102C000072B620680069616A0870606A401C606280
:102C1000208D401E2085608D401E6085374846F21D
:102C2000A8110068B0FBF1F0C0EBC00000EB800021
:102C30000090401E009008D020684069C04300E02A
:102C400029E040070CD50098F3E744F8305F67733C
:102C5000A573206940F02000206162B625731AE058
:102C60002068016841F40071016020680069616AB0
:102C70000870606A401C6062218D491E2185618D4B
:102C8000491E618562B621681AE0324649462046EF
:102C900001F09DFC10B10120BDE8F88F20680069AB
:102CA000616A0870606A401C6062218D491E21853E
:102CB000618D491E618521684A69D24352070AD451
:102CC00009690170606A401C6062208D401E208589
:102CD000608D401E6085208D00287FF46BAF84F8E6
:102CE0003D7084F83E5084F83C50D5E70220D3E78D
:102CF000020010000000FFFF040001000C00002093
:102D00002DE9F84F1F4690468A460446DDF8289084
:102D1000FFF7EAFC054694F83D0020287FD11923EF
:102D2000012240492046009501F0D2FB002876D1CF
:102D300094F83C00012872D0012084F83C002068FF
:102D40000168C90703D1016841F0010101602068F1
:102D5000016821F400610160212084F83D00102009
:102D600084F83E0000262664C4F824806785608DC0
:102D700020852D48E0622B464A465146204601F008
:102D80002DF890B9206841698069009036E02A46A4
:102D90004946204601F04EFC50B1206C042804D175
:102DA0002068016841F4007101600120BDE8F88FDE
:102DB000606A216800780861606A401C6062618D09
:102DC000491E6185218D491E89B22185226853697A
:102DD000DB435B070BD451B100781061606A401C83
:102DE0006062608D401E6085208D401E20852A46D1
:102DF0004946204601F046FB0028CED1208D002810
:102E0000C5D154F83D0B016841F4007101602020E8
:102E100004F81E09E67766770020C7E7FFE702207F
:102E2000C4E70000020010000000FFFF7047704779
:102E30002DE9FF4F83B09A46DDE91197934604468A
:102E4000DDF84080FFF750FC054694F83D0020284F
:102E50007FD11923012240492046009501F038FB1B
:102E6000002876D194F83C00012872D0012084F823
:102E70003C0020680168C90703D1016841F00101E5
:102E800001602068016821F400610160212084F85C
:102E90003D00402084F83E0000262664C4F82480CB
:102EA000A4F82A90608D20852C48E062CDE9007559
:102EB00053465A462046049901F0BEF970B930E0F5
:102EC0002A463946204601F0B5FB58B1206C04284B
:102ED00004D12068016841F400710160012007B04D
:102EE000BDE8F08F606A216800780861606A401C64
:102EF0006062218D491E89B22185628D521E6285D4
:102F000022685369DB435B070BD469B10078106119
:102F1000606A401C6062208D401E2085608D401ECE
:102F20006085208D0028CBD12A463946204601F005
:102F3000A9FA0028CAD154F83D0B016841F4007188
:102F40000160202004F81E09E67766770020C6E7B6
:102F5000FFE70220C3E70000020010000000FFFFAF
:102F600070B586B00025064600950195029503953B
:102F700000681E49884237D11D4CA06940F0080006
:102F8000A061A069694600F008000490C02000908C
:102F900012200190032003901648FFF79FFAE06982
:102FA00040F40010E061E069144C00F4001004905B
:102FB000114820601020C4E901058020C4E9030500
:102FC00080016561C4E906502046FFF71FFA08B189
:102FD000FFF726F87463002211461F20666200F096
:102FE00077F81F2000F066F806B070BD005400406E
:102FF00000100240000C01406C000240440100201F
:1030000070477047024881680278114481607047B8
:1030100000000020074810B5016841F01001016070
:10302000032000F075F80F2000F006F800F024F8F7
:10303000002010BD0020024070B50D4D04464FF435
:103040007A712878B1FBF0F00A490968B1FBF0F019
:1030500000F0F2FA48B9102C07D200222146501E87
:1030600000F036F800206C6070BD012070BD0000DB
:10307000000000200C0000200C4808B5816941F0D8
:1030800001018161816901F001010091C16941F093
:103090008051C161C06900F08050009004484168CF
:1030A00021F0E06141F00071416008BD0010024074
:1030B00000000140002809DB00F01F0201219140BF
:1030C0004009800000F1E020C0F8001170470000C6
:1030D000F0B40E4B1B680C46C3F30223C3F1070583
:1030E000042D00D90425191D072901D2002300E071
:1030F000DB1E012606FA05F1491E214099409E403B
:10310000761E16403143F0BC01F06DBD0CED00E0C1
:10311000064900F0070208684FF6FF03184040EA2E
:103120000220034A10430860704700000CED00E0E5
:103130000000FA052DE9F0470F46050061D0434E27
:10314000306800F00700B84209D2306820F007006C
:1031500038433060306800F00700B84251D1286829
:103160003B4C810712D5400703D5606840F4E0600E
:1031700060602878000703D5606840F460506060A4
:103180006068A96820F0F000084360602878C007F4
:1031900028D06868012810D02168022810D089073B
:1031A00000292EDA616821F0030101436160FFF715
:1031B0009BFA804641F288390DE021688903EFE7E8
:1031C0008901EDE7FFF790FAA0EB0801494502D924
:1031D0000320BDE8F0876068696800F00C00B0EB80
:1031E000810FEFD1306800F00700B8420BD930688A
:1031F00020F0070038433060306800F00700B84224
:1032000001D00120E5E72878400705D56068E96826
:1032100020F4E060084360602878000706D5606805
:10322000296920F4605040EAC100606000F03EF877
:103230006168084AC1F30311515CC840064908603F
:1032400006480068FFF7F8FE0020C2E700200240B1
:1032500000100240CC6800080C0000200400002090
:1032600001480068704700000C0000200448054930
:1032700000684968044AC1F30221515CC8407047A4
:103280000C00002000100240DC68000804480549DA
:1032900000684968044AC1F3C221515CC8407047C4
:1032A0000C00002000100240DC68000812A185B06C
:1032B0000FC98DE80F0014A0144A006804905168EB
:1032C000134801F00C03042B10D0082B0ED1C1F3CE
:1032D0008343C9031DF803000AD5516804AAC1F34A
:1032E0004041515C0A4A5043B0FBF1F005B07047D1
:1032F00008494843FAE700000203040506070809E5
:103300000A0B0C0D0E0F10100102000000100240FD
:1033100000127A0000093D002DE9F84F040070D03A
:103320002078C04DC00749D06868C0F381000128EB
:1033300007D06868C0F38100022809D16868C0031B
:1033400006D52868800339D560680028E7D035E0C5
:103350006068B0F5803F0BD010B1B0F5A02F11D050
:10336000286820F480302860286820F4802002E05B
:10337000286840F480302860606890B1FFF7B4F9A5
:1033800006460AE0286840F480202860F0E700BF85
:10339000FFF7AAF9801B642873D828688003F7D543
:1033A0000CE0FFF7A1F9064605E000BFFFF79CF926
:1033B000801B6428F0D828688003F7D420789A4EC0
:1033C00080074FF001094FF0000839D5686810F008
:1033D0000C0F07D06868C0F38100022809D1686823
:1033E000C00306D42868800714D52069012808D1B5
:1033F00010E02069B0B1C6F80090FFF775F90746F4
:1034000005E00AE1FFF770F9C01B0228C4D828685C
:103410008007F7D52868616920F0F80040EAC1000C
:1034200028600DE0C6F80080FFF75EF9074604E06B
:10343000FFF75AF9C01B022823D828688007F7D461
:10344000207800072CD57948A169D9B1C0F800903F
:10345000FFF74AF9074604E0FFF746F9C01B0228C8
:103460000FD8686A8007F7D571484FF4FA510068A1
:10347000B0FBF1F0009000BF0098411E0091FAD21D
:103480000EE080E0C0F80080FFF72EF9074604E068
:10349000FFF72AF9C01B022875D8686A8007F7D49D
:1034A0002078400760D5E8690027C00008D4E869A3
:1034B00040F08050E861E869012700F080500090FA
:1034C0005C480168C90513D40168834641F48071E2
:1034D0000160FFF709F9824606E000BFFFF704F933
:1034E000A0EB0A0064284ED8DBF80000C005F5D533
:1034F000E06801280AD008B1052813D0286A20F016
:1035000001002862286A20F0040002E0286A40F0E6
:1035100001002862E06841F2883B98B1FFF7E4F8C7
:1035200082460BE0286A40F004002862EEE700BF04
:10353000FFF7DAF8A0EB0A0159455AD8286A800744
:10354000F6D50CE0FFF7D0F8824605E0FFF7CCF89F
:10355000A0EB0A0159454CD8286A8007F6D41FB160
:10356000E86920F08050E861E06988B36968C1F3D8
:103570008101022944D00228C6F8608004D0FFF7F8
:10358000B3F8044638E034E0FFF7AEF8074604E04D
:10359000FFF7AAF8C01B02282BD828688001F7D4AF
:1035A000206AB0F5803F05D16868A16820F400303A
:1035B00008436860D4E908010843696821F474117C
:1035C00008436860C6F86090FFF78EF8044606E08E
:1035D00025E000BFFFF788F8001B022809D82868FB
:1035E0008001F7D51BE000BFFFF77EF8001B022823
:1035F00002D90320BDE8F88F28688001F4D40EE0DA
:103600000128F7D06868226A00F48031914204D121
:10361000616A00F47010884201D00120EAE70020BE
:10362000E8E70000001002400000424280044242ED
:103630000C0000200070004010B5401EB0F1807FEB
:1036400001D3012010BD4FF0E02460610F2160170D
:1036500001F0C9FA0020A06107202061002010BD00
:1036600070B590F83C20012A2CD0012480F83C4011
:10367000022280F83D2003685A689D6822F0700697
:103680000A6832435A60104B02689A420ED00F4BC0
:103690009A420BD0B2F1804F08D00D4B9A4205D020
:1036A0000C4B9A4202D00C4B9A4204D1496825F047
:1036B00080031943916080F83D40002180F83C1060
:1036C000084670BD022070BD002C0140003401404E
:1036D0000004004000080040000C004010B5040049
:1036E00003D094F83D0010B107E0012010BD002088
:1036F00084F83C00204600F01FF8022084F83D00CA
:10370000211D206801F086F9012084F8460084F824
:103710003E0084F83F0084F8400084F8410084F8BB
:10372000420084F8430084F8440084F8450084F89B
:103730003D00002010BD000008B500680649884221
:1037400008D10648C16941F01001C161C06900F0AB
:103750001000009008BD0000001000400010024062
:1037600070B5040004D094F83D00002510B106E0C7
:10377000012070BD84F83C50204600F023F824203E
:1037800084F83D002068C16821F40051C1602046E2
:1037900001F086F92068016921F4904101612068F7
:1037A000416921F02A0141612068C16841F400515A
:1037B000C1602564202084F83D0084F83E0000208C
:1037C00070BD000030B585B00024009401940294CF
:1037D000039400681449884224D11448816941F453
:1037E00080418161816901F480410491816941F0E6
:1037F0000401816180690E4D00F0040004904FF4D3
:103800000070009002200190032003906946284632
:10381000FEF764FE2815CDE90004694628460294A7
:10382000FEF75CFE05B030BD0038014000100240DC
:10383000000801402DE9F843044690F83D001F467A
:1038400016460D4620284CD1C5B1BEB194F83C00B7
:10385000012846D0012084F83C004FF00008C4F84D
:103860004080212084F83D00FEF73EFFA68481467B
:10387000E684A068B0F5805F03D004E00120BDE8D5
:10388000F883206928B12E465FF0000584F83C805B
:103890000EE00026FAE78021204601F05DF9A0B98C
:1038A000AEB116F8010B21684860E08C401EE08440
:1038B000E08C4B464FF0000200970028EBD14FF010
:1038C0004001204601F048F930B10320D7E735F830
:1038D000020BC0F30800E6E7202084F83D0000203A
:1038E000CDE70220CBE7FEE70148FEF705BF000069
:1038F000F000002038B5406A002190F83D202B4BA5
:1039000046F2A8141B68B3FBF4F3C3EBC30303EB49
:10391000830300933BB15B1E009303681B689B0508
:1039200005D5009BF6E7036C43F020030364436B6B
:1039300003B19962836B03B1996203681C6824F434
:1039400080641C604185436B03B15963836B03B191
:10395000596303681C6824F001041C6090F83D4022
:103960002023602C0BD0282434EA02020FD080F8E8
:103970003D3080F83E1000BFFEF7D6FF38BD80F81E
:103980003D3080F83E100164FEF7B4FE38BD026899
:10399000136843F0010313600268136843F4806303
:1039A0001360016380F83D40E6E700000C00002052
:1039B00070B5044690F83D0094F83E10102901D0EF
:1039C000402906D1222804D121680A6822F4006225
:1039D0000A60282131EA00024FF000054FF020066E
:1039E00026D021684968090505D4602803D084F8E9
:1039F0003D6084F83E50256320684168090537D54D
:103A0000416821F400614160606B3D4990F82120DC
:103A1000012A11D04163606BFEF738FB38B3206890
:103A2000016821F00101016084F83D60606B1CE0D9
:103A3000256384F83D10DFE7A06B4163A06BFEF7C0
:103A400025FBA0B120684169C943490605D4006936
:103A5000616A0870606A401C60622068016821F039
:103A60000101016084F83D60A06B416B884710E064
:103A700094F83D10602910D04169C943490605D426
:103A80000069616A0870606A401C60622046FEF747
:103A90004BFF206CC1071CD115E084F83D60256404
:103AA0004169C943490605D40069616A0870606AC2
:103AB000401C60622068016821F00101016020461D
:103AC000FEF718FEE5E7810703D4410701D400079C
:103AD00004D52068416821F4E061416094F83D001C
:103AE000216C49070BD5282809D10648E0622563D7
:103AF00084F83D6084F83E502046FEF7DBFF70BD41
:103B0000F53800080000FFFF01684A69D2435205FA
:103B10000FD46FF480624A61002140F8301F2022E8
:103B200042738173026942F0040202610173012051
:103B300070470020704710B5C26A438D0168042B9E
:103B400006D0438D032B08D0438D022B1DD012E0ED
:103B50004A6822F480624A600CE04B6823F4806378
:103B60004B60042A06D0022A04D001680A6822F4B5
:103B700080620A6001680969426A1170416A491CE1
:103B80004162418D491E418510BD012A30D0102A65
:103B90002ED0042A30D0022A2ED00A6842F40072B5
:103BA0000A6001680969426A1170416A491C4162F0
:103BB000428D521E4285026812690A70416A491C90
:103BC0004162418D491E418501684A6822F4407274
:103BD0004A60202180F83D1090F83E200021402AC4
:103BE00080F83E100CD012210163FEF764FF10BD77
:103BF0000A6822F48062D3E70A6842F48062CFE761
:103C00000163FFF713F910BD38B590F83D10222974
:103C100014D1418D032912D901680969426A1170D2
:103C2000416A491C4162418D491E4185418D0329EC
:103C300004D10068416821F48061416038BDC26AE6
:103C4000022AFBD0012901D00029F7D1274946F2E9
:103C5000A81300220968B1FBF3F101EB8101009187
:103C600001682023009C641E009422D00C68A405E7
:103C7000F8D40C6824F480640C6001684C6824F467
:103C8000E0644C6001680969446A2170416A491C1A
:103C90004162418D491E418580F83D3090F83E10CB
:103CA00080F83E2040291DD012210163FEF703FF5A
:103CB00038BD046C44F0200404644C6824F4E064CF
:103CC0004C6001680969446A2170416A491C41627B
:103CD000418D491E418580F83D3080F83E20FEF739
:103CE00023FE38BD0263FFF7A1F838BD0C000020A9
:103CF0002DE9F84F0446C06A1E4693460D462168DA
:103D00000A6842F480620A60082807D0012805D0BA
:103D100010F5803F02D0206B112804D12068016883
:103D200041F4807101604FF001195B460022494661
:103D30002046009600F0CCFB4FF4007840B120689C
:103D40000068C00501D5C4F840800320BDE8F88FA5
:103D50002069DFF884A0B0F5804F0FD006202168DD
:103D600000EAD51747F0F000086133465A460AF1D9
:103D70000601204600F0E0FB58BB03E0E8B240F04B
:103D800001001CE02168E8B2086133465A465146FA
:103D9000204600F0D1FBE0B92068416981690091BB
:103DA000016841F4807101605B460022494620466B
:103DB000009600F08DFB0028C1D147F0F10021688A
:103DC000086133465A465146204600F0B5FB0028AC
:103DD000BCD00120BAE7000002000100F8B504469B
:103DE000C06A1E460D461746082807D0012805D090
:103DF00010F5803F02D0206B122804D120680168A2
:103E000041F480710160134600224FF001112046F9
:103E1000009600F05DFB40B120680068C00502D547
:103E20004FF4007020640320F8BD2069B0F5804F86
:103E30000ED00620216800EAD51040F0F00008619D
:103E400033463A460B49204600F076FB78B902E04B
:103E500005F0FE0000E0E8B221680861054933463C
:103E60003A46891F204600F067FB0028DCD001207D
:103E7000F8BD00000800010010B5C26A90F83D10BE
:103E800021290BD1418D51B1416A02680978116134
:103E9000416A491C4162418D491E418510BD202364
:103EA0000021082A13D0202A11D012F5803F0ED00D
:103EB0000268546824F4E06454601122026380F8BC
:103EC0003E1080F83D3000BFFEF7F6FD10BD0268E1
:103ED000546824F4E06454600268146844F4007484
:103EE0001460016380F83D3090F83E2080F83E1069
:103EF000402AE9D1FEF79BFF10BD000010B590F8F5
:103F00003D1090F83E30C26A048DB4B1212903D02F
:103F1000402B11D122290FD1418DE1B390F83E10F1
:103F2000402942D0416A026809781161416A491CFE
:103F30004162418D491E418510BD2129E8D12023D0
:103F40000021082A13D0202A11D012F5803F0ED06C
:103F50000268546824F4E06454601122026380F81B
:103F60003E1080F83D3000BFFEF7A6FD10BD026890
:103F7000546824F4E06454600268146844F40074E3
:103F80001460016380F83D3090F83E2080F83E10C8
:103F9000402AE9D100E002E0FEF749FF10BD0068C9
:103FA000416821F48061416010BDBDE8104000F01F
:103FB000F3B8000078B590F83E50C26A046B90F8F0
:103FC0003D6000230168222E73D1066D0EB9402D8D
:103FD0006FD0056D1DB90569B5F5404F1BD0458DF6
:103FE00095B3468D484D012E20D0448D022C4DD0E6
:103FF0000C6844F480640C6001684C68240579D531
:10400000AA4273D0012A71D0082A6FD0102A6DD02D
:10401000202A6BD06EE04A698A6900920A6842F4ED
:1040200080720A60016D491C016578BDAA4214D1F5
:104030000A6822F480620A6001684A68120504D5A1
:104040000A6822F4806217E0FFE74A698A690092F1
:104050000A6842F400720A6050E0082A10D0202A50
:104060000ED0122C0AD0042A03D0022A01D0102A22
:10407000E6D10A6842F480620A603BE0012ADFD0A0
:104080000A6822F480620A600168DEE7042A11D01F
:10409000022A0FD0102A0DD00C6844F400640C6082
:1040A00001684C698C6900940C6824F480640C608D
:1040B00008E025E00C6844F480640C6001684C69F9
:1040C0008969009101684C68240517D5AA4207D078
:1040D000012A05D0082A03D0102A01D0202A0DD1A8
:1040E0004A6842F480524A6008E0FFE74A6842F4B6
:1040F00080524A6001684A6989690091036578BD08
:1041000048698869009078BD0000FFFF90F83E1074
:10411000402910D00169B1F5804F19D0016DA9B3C4
:10412000016D012910D1416C5FF0F10201F4407181
:1041300042EAD11106E0016D0029416C05D0C9B2F7
:1041400041F0010100680161704701F0FE01F9E7EB
:1041500090F83D102129416C09D0C9B241F001010C
:1041600002681161416B29B1896A49B902E001F025
:10417000FE01F5E7816B0029E6D0896A0029E3D0CA
:104180000068416841F4006141607047FFE7416C9D
:10419000F02201F44071CBE710B590F83D10026DAC
:1041A00022B3026D012A2FD0026D022A1DD12229CD
:1041B0002FD0428D0AB1212933D0428D002A14D14B
:1041C000212912D101684A6822F4E0624A6001683C
:1041D0000A6842F400720A6000210163202280F81C
:1041E0003D2080F83E10FEF722FE10BDC16C012973
:1041F000816C02D0C1F3072108E00268C9B21161E5
:10420000016D891C016510BD816CC9B20268116124
:1042100004E001680A6842F480720A60016D491C7A
:10422000F0E7416A026809781161416A491C4162FC
:10423000418D491E418510BD2DE9F84304460068B3
:104240000D46DDE9089701689846164641F48071ED
:1042500001604B4600224FF001112046009700F00C
:1042600037F948B120680068C00502D54FF40070E6
:1042700020640320BDE8F883216805F0FE00086192
:104280003B464A461549204600F056F988B9206851
:104290004169806900903A464946204600F0CAF9D3
:1042A00048B1206C042804D12068016841F40071F1
:1042B00001600120DEE7F5B2B8F1010F09D02168F5
:1042C000300A08613A464946204600F0B3F9002812
:1042D000E7D1206805610020CCE700000200010062
:1042E00038B50C4690F83D200021282595430268FA
:1042F0000B4605D051699169009180F83C3038BD7A
:10430000556825F480655560E243540700D50121C6
:10431000120601D5828900E0028B80F83C3092B20F
:10432000FEF7E9F938BD0000F8B590F83D600446A5
:104330000068416821F4E06141602068002541691E
:104340000091016841F0010101602068016821F4D9
:104350008061016020684168090520D5474F222E01
:1043600048D02A2E46D0616B096849686185618D05
:1043700019B1216C41F004012164416821F400610C
:104380004160606BFDF71AFF012808D0606B47633E
:10439000606BFDF77BFE10B1606B416B8847608DF1
:1043A00008B320684169C943490708D40069616AB4
:1043B0000870606A401C6062608D401E60852068E5
:1043C0004169C943490608D40069616A0870606A96
:1043D000401C6062608D401E6085608D18B1206C4D
:1043E00040F004002064206C00B32046BDE8F84093
:1043F000FFF7DEBAA16B096849686185618D19B163
:10440000216C41F004012164416821F400614160A4
:10441000A06BFDF7D3FE0128C1D0A06B4763A06B52
:10442000FDF734FE0028BAD0A06BB6E72A2E06D1DD
:104430002563282084F83D002046FEF7E1FD94F82E
:104440003D10202028290DD0216B222901D0222EB9
:1044500007D1256384F83D0084F83E502046FEF7DE
:10446000CFFDF8BD0649E162256384F83D0084F87C
:104470003E502046FEF71EFBF8BD0000F538000850
:104480000000FFFF70B516460D4604460DE02046BD
:10449000FFF73AFB08B1012070BD681C05D0FEF79C
:1044A00023F9801BA84207D835B120684069C04372
:1044B0004007ECD4002070BD002044F8300F2021CC
:1044C0006173A073216941F0200121612073E2E74B
:1044D0002DE9F0471E4690460D460446C1F30747B6
:1044E000DDF8209008E0701C06D0FEF7FDF8A0EB88
:1044F0000900B0420FD876B12068012F18D080692A
:1045000025EA00000004000C14D000214145EAD047
:104510000020BDE8F087002044F8300F20216173AF
:10452000A073216941F02001216120730120F0E78F
:104530004069E5E70121E9E72DE9F0479A46914610
:104540000E46044600254FF02008C1F3074725E03A
:1045500020684069C043400514D42068016841F4D4
:104560000071016021686FF480604861256384F800
:104570003D8084F83E50206C40F00400206484F8B4
:104580003C501FE0B9F1FF3F08D0FEF7ADF8A0EBBB
:104590000A0149450CD8B9F1000F09D02068012F54
:1045A00013D0806926EA00000004000C0BD0CFE78E
:1045B00044F8305F84F80D80A573206940F0200036
:1045C000206125730120BDE8F0874069EAE72DE905
:1045D000F041002590460E460446202717E040692A
:1045E000C043C0060CD454F8301B6FF01000486173
:1045F00044F810596777A577206A2062257717E07D
:10460000FEF772F8A0EB0800B04208D83EB120686F
:104610004169C9434906E2D40020BDE8F08144F86D
:10462000305F6773A573206940F020002061257317
:104630000120F2E770B516460D4604460DE020460F
:10464000FFF762FA08B1012070BD681C05D0FEF7C3
:104650004BF8801BA84207D835B120684069C04399
:104660000006ECD4002070BD002044F8300F20215B
:104670006173A073216941F0200121612073E2E799
:10468000094808B5416941F00101416140690022D2
:1046900000F00100009011461020FEF719FDBDE862
:1046A00008401020FEF706BD00100240F0B585B0AE
:1046B000002423480094019402940394816941F0FA
:1046C00040018161816901F040010491816941F0FB
:1046D00004018161816901F004010491816941F45F
:1046E00080718161816901F480710491816941F077
:1046F000080181618069012200F00800114FD60293
:10470000049031463846FDF7EAFF182001258DE870
:10471000310069460C48FDF7E1FECDE900546946D9
:104720000A480294FDF7DAFE0320CDE90250CDE9F4
:10473000006569463846FDF7D1FE05B0F0BD0000C2
:104740000010024000200140001801400008014014
:104750000D4810B50B4901600C49416000214FF430
:1047600080428160C0E9031241618161C1610162DF
:10477000FEF7DCF8002803D0BDE81040FDF750BC80
:1047800010BD000000540040F0000020801A060018
:104790007CB50025164C009514480195206041F623
:1047A0001F40C4E901054FF6FF70A561E060204697
:1047B000FEF794FF08B1FDF733FC009569460C48FD
:1047C0000195FEF74DFF08B1FDF72AFC2068016A4C
:1047D00041F21112114207D1016A9210114203D124
:1047E000016821F0010101607CBD00000010004063
:1047F000880100200C4810B50A4901604FF4E131EE
:104800004160002181600C22C160C0E90412816115
:10481000C161FEF7A5FF002803D0BDE81040FDF7F9
:10482000FFBB10BD00380140D0010020FEE7FEE7CD
:1048300030B40021084B0A465FF0000003EBC004CF
:10484000401CC0B262548028F8D3491CC9B2082960
:10485000F2D330BC00F06EB81402002010B5642012
:10486000FDF712FE0021AE2000F08AF80021D520CD
:1048700000F086F80021802000F082F80021A820B6
:1048800000F07EF800213F2000F07AF80021D320CC
:1048900000F076F80021084600F072F80021402070
:1048A00000F06EF800218D2000F06AF8002114203D
:1048B00000F066F80021202000F062F800210220BC
:1048C00000F05EF80021A12000F05AF80021C0207D
:1048D00000F056F80021DA2000F052F800211220F2
:1048E00000F04EF80021812000F04AF80021EF206E
:1048F00000F046F80021D92000F042F80021F12014
:1049000000F03EF80021DB2000F03AF800213020D2
:1049100000F036F80021A42000F032F80021A62093
:1049200000F02EF80021AF2000F02AF8BDE810407A
:10493000FFF77EBF70B5114E002400BF04F1B00038
:10494000C0B2002100F01CF80021084600F018F861
:104950000021102000F014F85FF0000506EBC50000
:104960000121005D00F00CF86D1CEDB2802DF5D337
:10497000641CE4B2082CE1D370BD000014020020D6
:1049800003B583B0012203ABCDE900324FF4807050
:104990000290134609B1402200E00022782102482B
:1049A000FEF746FA05B000BDF000002070477047E2
:1049B000FEF728BB30B58FB028216846FBF727FEED
:1049C00014210AA8FBF723FE01210804CDE90010F9
:1049D0000024029402250491CDE907504FF4E01021
:1049E00009906846FEF798FC08B172B6FEE70F2002
:1049F000CDE90A054FF48060CDE90C4002210AA8F8
:104A00000E94FEF797FB002801D072B6FEE70FB0B8
:104A100030BD7047F0B502681C4B1D4D1D4E1E4F3A
:104A20001E4C4FF0804C984209D0A04207D0604500
:104A300005D0A84203D0B04201D0B84204D122F040
:104A4000700E4A6842EA0E02984209D0A04207D08E
:104A5000604505D0A84203D0B04201D0B84203D18E
:104A600022F44075CA682A434D6922F080022A4325
:104A700002608A68C2620A688262984201D0A042DB
:104A800001D10969016301214161F0BD002C0140A0
:104A90000004004000080040000C004000340140C9
:104AA00070B5044600680169E26821F44051114381
:104AB00001612169A0680843616908432168CA68E7
:104AC00041F20C639A430243CA6020684169A269BB
:104AD00021F44071114341611E492068884202D18E
:104AE000FEF7D4FB01E0FEF7C1FB00EBC00101EBD8
:104AF0000012606864218000B2FBF0F3B3FBF1F3B5
:104B00006FF018067343B2FBF0F5B2FBF0F605EB5D
:104B10008305322303EB0515B5FBF1F5B6FBF1F682
:104B200005F0F00505EB0615B2FBF0F6B2FBF0F070
:104B3000B0FBF1F06FF01802504306EB800003EB7E
:104B40000010B0FBF1F0216800F00F0028448860ED
:104B500070BD0000003801402DE9F041984617462D
:104B60000E460446069D1DE0681C1BD02DB1FDF7C6
:104B7000BBFDA0EB0800A84214D92068C16821F44D
:104B8000D071C1602068416921F00101416120209C
:104B900084F83D0084F83E00002084F83C000320A7
:104BA000BDE8F0812068006836EA000004D00020EB
:104BB000B842D9D00020F3E70120F9E7FEE7490029
:104BC00050EAC12018BF04204A0D18BF40F0010070
:104BD00040F2FF72B2EB515F08BF40F002000128C3
:104BE00008BF052070470907090E002804DB00F103
:104BF000E02080F80014704700F00F0000F1E02082
:104C000080F8141D704730380A2801D201207047FF
:104C1000002070472DE9F0411F4690460E4604469D
:104C2000002508E0A06908B1044603E010A1174878
:104C300001F016FC6D1CBD42F4DB206900280ED18A
:104C400013A1124801F00CFC1C20FBF739FB40B10A
:104C500020610021C46080E8420141618161BDE8BA
:104C6000F08110A1094801F0FBFB0020FBF788FC54
:104C7000E8B685E587BAE5BD93E5898DE69DA1E7B0
:104C80009BAEE7BC96E58FB7210D0A00D00100204E
:104C9000E5889BE5BBBAE5AD90E88F9CE58D955C1A
:104CA000720A00004E6F20456E6F756768204D6F69
:104CB0006D65727920746F20416C6C6F63617465EF
:104CC000210D0A002DE9F0410646054690460F46A3
:104CD0001C20FBF7F5FA040002D046B101200DE0DC
:104CE0000EA1164801F0BCFB0020FBF749FC14A103
:104CF000124801F0B5FB08E00D46401CA9690029E7
:104D0000FAD1AC61E660656120600020A06120619D
:104D1000C4E901872046BDE8F08100004E6F2045C0
:104D20006E6F756768204D6F6D65727920746F20A6
:104D3000416C6C6F63617465210A0000D001002032
:104D4000E5889BE5BBBAE79BAEE5BD95E5A4B4E875
:104D50008A82E782B95C6E0030B585B0194D0024B7
:104D60000294A86940F00800A861A869694600F0AB
:104D7000080004904FF4406000901220019003203E
:104D800003901148FDF7AAFBE86940F48000E86150
:104D9000E8690E4900F4800004900D4801600D4957
:104DA000C0E901144FF48041C0E9034144618461CA
:104DB000C4610462FDF7BAFD002801D0FDF730F9A7
:104DC00005B030BD00100240000C0140005800400A
:104DD00024060020801A0600054A28B1012805D1C2
:104DE00008211046FDF776BC1021FAE77047000055
:104DF0000018014030B5A3B0264C43E020A8FDF7D1
:104E0000A3F818B124A1264801F02AFBFDF70AF9FE
:104E10000546244800F0D6FB224800F068FA2249F3
:104E2000204800F02BFC9DF883309DF882201FA1C4
:104E30006846FBF78FFA6B460F220121194800F0F4
:104E4000B3FB9DF881309DF880201DA16846FBF7DB
:104E500081FA6B4619220121124800F0A5FB2A466F
:104E60001DA16846FBF776FA6B46232201210D4807
:104E700000F09AFB0B4800F0EAFB0A4800F0C8FB80
:104E80000028C9D108212046FDF724FC0128B5D00F
:104E900023B030BD001801406661696C6564210073
:104EA000D001002050000020E468000874656D7097
:104EB000747572653A2025642E256420A1E34300B1
:104EC00068756D69646974793A2025642E256420BB
:104ED0002525524800000000696C6C756D696E6193
:104EE00074696F6E3A202564206C780010B5007CE0
:104EF000012809D0022812D003280FD109A1BDE84A
:104F000010400B4801F0ACBA0AA1094801F0A8FA18
:104F10000B4908688069002800D0086010BD09A10D
:104F2000EDE700006B657930B3A4B0B40D0A000062
:104F3000D00100206B657930B5A5BBF70D0A0000E4
:104F4000E40000206B657930CBABBBF70D0A0000A5
:104F500010B5007C114C01280BD0022812D0032878
:104F600006D10FA1114801F07BFA2068C06838B95A
:104F700010BD0FA10D4801F073FA20684069F6E7F3
:104F8000206010BD0DA1094801F06AFA2168086986
:104F90000028F5D18868BDE810400047E4000020F3
:104FA0006B657931B3A4B0B40D0A0000D0010020C4
:104FB0006B657931B5A5BBF70D0A00006B657931DA
:104FC000CBABBBF70D0A00002DE9F04700253B4FA6
:104FD00040F6B838A9463A4E6BE0E8B2FFF7FCFE5F
:104FE00006EB85046168487061688A78904228D031
:104FF0000A20FDF749FA606841788170606841785D
:1050000011B1012908D053E00570606882684245FB
:105010000ED980F803900BE0416841F2BF22C939F4
:10502000914202D3C178012902D1C178491CC170D3
:10503000224800F04AF93868016841F00101016036
:1050400036E010B1012812D032E03868426A4A6076
:1050500041F2883160688A422AD9C07840BB17483B
:1050600000F033F96168032081F803901AE0386892
:10507000426A8A606068C078012802D002280AD09B
:1050800016E0424514D90D4800F01FF9616801206F
:1050900081F8039006E0094800F017F961680220E2
:1050A00081F80390616808746068C16801B188473D
:1050B0006D1C3078A84290DCBDE8F08788010020A4
:1050C00014060020FDF7A6FFFFF774FCFFF7EEFAC9
:1050D000FFF7D6FAFFF73CFBFFF78CFBFFF758FB17
:1050E000FFF7BCFBFCF7BEFEFFF736FE164B174A78
:1050F0001749184800F00AFB164800F0E6FE0021A8
:10510000144800F0F2FE134913482839C8601431DE
:105110001248C860A1F1140000F0C6F80D48143818
:1051200000F0C2F800F01CF80A4C9434FFF74CFF72
:10513000084800F047FA206800F060F8054800F0E1
:1051400067FA0028F7D1F1E7D16200088D5F000807
:10515000B07A000850000020ED4E0008514F0008C2
:1051600070B5002013A21649FFF7ACFD05460023D9
:10517000134A14A1FFF74EFD044614A21049FFF78D
:10518000A1FD14A20E492046FFF79CFD0023134AFF
:1051900013A12046FFF73EFD064613A20849FFF77C
:1051A00091FD13A206493046FFF78CFD12480460BA
:1051B000284670BDCCEDBCD3CDB7BDDAB5E3000059
:1051C000C95200086974656D310000006974656D2D
:1051D000320000006974656D33000000F54D000871
:1051E000696E666F0000000073797374656D00006E
:1051F0006A75737469636500E40000207CB5044639
:1052000000E00C4661690029FBD10188234DC1EB08
:10521000C101490069814068FBF7B8F900EB8000E3
:105220004000E8801E491F4800F028FA1D4800F0A1
:105230005EF80EE021886888C1EBC10100EB4100F7
:1052400082B228886368801C81B2164800F0A4F9F5
:10525000A469002CEED103211020CDE9000128899A
:105260002C46801C82B2AB8829880E4800F013F9C6
:105270000A4905250A312B460222881E009501F0B5
:10528000CBF805230222A11D201D009501F0C4F8D2
:10529000BDE87C40034800F0DAB900001C000020A3
:1052A000B4700008500000200021C170017405494D
:1052B0000A7801EB820250600878401C08700020D8
:1052C0007047000014060020704701680A6A41F226
:1052D00011131A4207D10A6A9B101A4203D10A68B5
:1052E00022F001020A6000680021416270470168F3
:1052F0000A7C90F83810406B5143C900FBF765B940
:105300002DE9F8431C4680461019401C80B20090DD
:105310000819401C83B21546101B82B20E46081BAA
:1053200081B2089F404600F05BF9002806D0234672
:105330002A4631464046009700F09EFABDE8F883C1
:105340002DE9F041044690F870001F4615460E46C0
:1053500030B1012809D002280CD0032815D10FE064
:10536000E16D20468847284408E0E16D20468847E3
:10537000301A09E0E16D20468847281A85B204E01A
:10538000E16D20468847304486B22846A4F8646020
:10539000A4F8660039460025204600F03FFC0100D5
:1053A00003D0204600F06AFB85B22846BDE8F081B4
:1053B00038B50024009400F001F838BD3FB581B045
:1053C000044690F88C00089900283AD0BDF81000E7
:1053D000002836D0012811D9022902D0032907D08C
:1053E0000CE0BDF80820101A401CADF8080005E0DC
:1053F000BDF80C20101A401CADF80C0011F001058E
:1054000021D0B4F84810BDF80800814219D8B4F88A
:105410004A10814215D9B4F84E30B4F84C2004A992
:105420000DF10C0000F00AFA00280AD00095206B5C
:10543000BDF81030BDF80C208568BDF80810204676
:10544000A84705B030BDB4F84C10BDF80C0081423F
:10545000F7D8B4F84E108142F3D9B4F84A30B4F812
:10546000482004A902A8DDE708B5B0F84C30934203
:1054700010D8B0F84E3093420CD9B0F848308B4277
:1054800008D8B0F84A308B4204D900230093012396
:10549000FFF794FF08BD2DE9FF4F83B01C46DDE9FF
:1054A000106502EB060A1FFA8AF001EB040900906E
:1054B000174688461FFA89F3039800F091F80028F0
:1054C00067D008EB05001FFA80FB781981B2A9EBC1
:1054D0000500401E80B2CDE90110AAEB0500401E78
:1054E0001FFA80F902200A4600902B46594603987D
:1054F000FFF706FF01200090DDE902102B46019A1C
:10550000FFF7FEFE042000902B464A4659460398BA
:10551000FFF7F6FE08200090DDE902102B464A4610
:10552000FFF7EEFE601B711B401B491B8DB20BF198
:1055300001011FFA81FA019980B2491C1FFA81FB0F
:10554000032810D3801E80B2814603463A46514656
:10555000761E0398FFF72CFFB81982B24B465146CE
:105560000398FFF725FF032D13D3AD1EADB22B46D5
:105570005A464146641E039800F01EF808EB0400EA
:1055800081B2039807B02B465A46BDE8F04F00F0B1
:1055900013B807B0BDE8F08F30B4024C446030BCA3
:1055A00000F00BBA515F000830B4024C446030BCCC
:1055B00000F003BA8963000838B501240094FFF7AE
:1055C000FDFE38BD10B5044690F8930010B120469A
:1055D000FFF78DFE2046BDE81040002100F040B8E6
:1055E00070B50D461E460446B0F84E10B0F84C009B
:1055F000049B00F070FB002809D0B4F84A10B4F8FE
:10560000480033462A46BDE8704000F064BB70BDD8
:1056100070B5044600F0EDFB94F8390094F83810AA
:105620000844C5B22068407CA84204D8204600F057
:1056300054FC002070BD94F8930010B12046FFF791
:1056400056FE2946204600F00BF8012070BD10B52B
:10565000044600F0CEFB2046BDE8104000F03DBC03
:1056600010B5044680F83910006B01682046884761
:10567000206B41682046BDE81040084710B504463D
:10568000806D884209D004F17400A16500F07CFBB4
:105690002046BDE8104000F055B810BD0149C16575
:1056A00070470000315A00080021A0F85010A0F8FF
:1056B00054104FF6FF71A0F85210A0F85610016B6D
:1056C0004968084770B5044600250498A565E3625B
:1056D000616384F8382084F8395084F86D5084F878
:1056E000915084F88D50012184F8921084F8931021
:1056F00020630168204688472046FFF7D5FF2046F3
:10570000FFF7CCFF84F8705070BD00007CB50C46EC
:10571000009313460546084A084900F0EEFB01A82D
:1057200000F02CFB0146064B00949DF8042028460F
:10573000FFF7C8FF7CBD0000A1600008C961000838
:10574000EF5C000810B5816D00291AD090F9813006
:1057500080F88E3090F9822080F88F2090F88D109C
:1057600000290ED001290DD090F97E4090F98010CB
:105770000C449C4201DD80F88E408A4201DD80F8B5
:105780008F1010BD90F983108B4201DA80F88E10D3
:1057900090F98410F1E72BB1012B05D0022B06D034
:1057A000104402E0084400E0801A80B27047401ABA
:1057B000FBE72BB1012B05D0022B06D0401A02E0EB
:1057C000104400E0084480B27047801AFBE738B507
:1057D0000446B0F856000090B4F85230B4F85420A3
:1057E000B4F850102046FFF7FBFE18B3012084F8F0
:1057F0008C00B4F84810B4F85000814201D2A4F8EB
:105800004800B4F84A10B4F85200814201D9A4F813
:105810004A00B4F84C10B4F85400814201D2A4F804
:105820004C00B4F84E10B4F85600814201D9A4F8E7
:105830004E0038BD002084F88C0038BD30B5048897
:105840000D882544ADB2AC4205D99C4202D25D1E02
:10585000ADB200E014469C4201D2954201D800202E
:1058600030BD944200D214469D4200D91D460480AA
:10587000281B0880012030BD2DE9FF4FC3F1010036
:1058800083B006B258429146DDF840A040008B46F6
:1058900001271C46CDE9009A00250FFA80F85B46E7
:1058A0002246294615E0002E08DB08F102000FFA17
:1058B00080F8641E06EB0800A4B206B26D1CBF1C83
:1058C0003FB2CDE9009AADB2F01906B25B4622466E
:1058D0002946039800F005F8A542E4D307B0BDE8D7
:1058E000F08F2DE9FF4F83B00E46DDE9108703EB03
:1058F000060002901546A8EB0600019003EB050098
:105900001C46F907A8EB050B00900DD002981FFA72
:105910008BF281B20398FFF7A7FD019882B200983D
:1059200081B20398FFF7A0FDB907A4EB060AA4EB28
:1059300005090DD51FFA8BF21FFA8AF10398FFF7BC
:1059400093FD01981FFA89F182B20398FFF78CFD4D
:1059500008EB0504390708EB06050BD50298A2B23F
:1059600081B20398FFF780FD0098AAB281B2039834
:10597000FFF77AFD78070ED5A2B21FFA8AF10398D5
:10598000FFF772FD039807B0AAB21FFA89F1BDE8CC
:10599000F04FFFF769BD07B0BDE8F08F38B5C58F90
:1059A000049C0094521BC46A92B2A04738BD38B51B
:1059B000049C0094FFF7F2FF38BD2DE9F0471C4628
:1059C00091468846064600F0DBFC00254FF6FF773F
:1059D00072682178304690470346B84225D0641C4F
:1059E000A3F57F40FE38F3D04A4641463046FFF7E4
:1059F000A7FC96F8701031B1012907D0022908D010
:105A000003290FD10AE008EB000104E009EB0001D3
:105A100006E0A8EB00011FFA81F803E0A9EB000102
:105A20001FFA81F9284485B2D2E72846BDE8F087FD
:105A30000020704710B50C4600F006F80122641EE5
:105A4000A240801A40B210BD30B50568047B2A78A8
:105A5000E2406318DBB2082B09D36D1C05602D787A
:105A6000C4F10804A5401543083BEAB2DBB20124A7
:105A70008C40641E14400373204630BD2DE9F8436A
:105A8000054600F1600400F00CF915F96B6F204633
:105A9000E97BFFF7CFFF8146297C2046FFF7CAFF4D
:105AA0000746697C20466B3DFFF7C4FF804694F9AA
:105AB0000A00002857DDF019404247B2237CA08835
:105AC0003A464946FFF767FEA080237C3A46E088C5
:105AD0004946FFF76EFEE080A188277C02460B4610
